{"abi":[{"type":"constructor","inputs":[],"stateMutability":"nonpayable"},{"type":"function","name":"failImmediately","inputs":[],"outputs":[],"stateMutability":"nonpayable"},{"type":"function","name":"owner","inputs":[],"outputs":[{"name":"","type":"address","internalType":"address"}],"stateMutability":"view"}],"bytecode":{"object":"0x608080604052346025575f80546001600160a01b0319163317905560de908161002a8239f35b5f80fdfe60808060405260043610156011575f80fd5b5f3560e01c9081634e1a03d61460585750638da5cb5b14602f575f80fd5b346054575f3660031901126054575f546040516001600160a01b039091168152602090f35b5f80fd5b346054575f36600319011260545762461bcd60e51b815260206004820181905260248201527f52657665727441747461636b3a2044656c69626572617465206661696c7572656044820152606490fdfea26469706673582212206c3f36d1969c13cb7d18e51c3086e8b9502690aa85756db918d8f02635f3093164736f6c634300081e0033","linkReferences":{}},"methodIdentifiers":{"failImmediately()":"4e1a03d6","owner()":"8da5cb5b"},"id":21}