{"abi":[{"type":"constructor","inputs":[{"name":"_owners","type":"address[]","internalType":"address[]"},{"name":"_threshold","type":"uint256","internalType":"uint256"}],"stateMutability":"payable"},{"type":"receive","stateMutability":"payable"},{"type":"function","name":"addOwner","inputs":[{"name":"newOwner","type":"address","internalType":"address"}],"outputs":[],"stateMutability":"nonpayable"},{"type":"function","name":"batchExecute","inputs":[{"name":"ids","type":"uint256[]","internalType":"uint256[]"}],"outputs":[],"stateMutability":"nonpayable"},{"type":"function","name":"cancelTransaction","inputs":[{"name":"proposalId","type":"uint256","internalType":"uint256"}],"outputs":[],"stateMutability":"nonpayable"},{"type":"function","name":"changeThreshold","inputs":[{"name":"newThreshold","type":"uint256","internalType":"uint256"}],"outputs":[],"stateMutability":"nonpayable"},{"type":"function","name":"confirmTransaction","inputs":[{"name":"proposalId","type":"uint256","internalType":"uint256"}],"outputs":[],"stateMutability":"nonpayable"},{"type":"function","name":"dangerousAdd","inputs":[{"name":"a","type":"uint256","internalType":"uint256"},{"name":"b","type":"uint256","internalType":"uint256"}],"outputs":[{"name":"","type":"uint256","internalType":"uint256"}],"stateMutability":"pure"},{"type":"function","name":"emergencyWithdraw","inputs":[{"name":"to","type":"address","internalType":"address payable"}],"outputs":[],"stateMutability":"nonpayable"},{"type":"function","name":"executeTransaction","inputs":[{"name":"proposalId","type":"uint256","internalType":"uint256"}],"outputs":[],"stateMutability":"nonpayable"},{"type":"function","name":"executeWithSignature","inputs":[{"name":"to","type":"address","internalType":"address"},{"name":"value","type":"uint256","internalType":"uint256"},{"name":"data","type":"bytes","internalType":"bytes"},{"name":"signature","type":"bytes","internalType":"bytes"}],"outputs":[],"stateMutability":"nonpayable"},{"type":"function","name":"getOwners","inputs":[],"outputs":[{"name":"","type":"address[]","internalType":"address[]"}],"stateMutability":"view"},{"type":"function","name":"getProposal","inputs":[{"name":"proposalId","type":"uint256","internalType":"uint256"}],"outputs":[{"name":"proposer","type":"address","internalType":"address"},{"name":"to","type":"address","internalType":"address"},{"name":"value","type":"uint256","internalType":"uint256"},{"name":"data","type":"bytes","internalType":"bytes"},{"name":"confirmations","type":"uint256","internalType":"uint256"},{"name":"executed","type":"bool","internalType":"bool"},{"name":"createdAt","type":"uint256","internalType":"uint256"}],"stateMutability":"view"},{"type":"function","name":"isOwner","inputs":[{"name":"","type":"address","internalType":"address"}],"outputs":[{"name":"","type":"bool","internalType":"bool"}],"stateMutability":"view"},{"type":"function","name":"naiveHash","inputs":[{"name":"a","type":"address","internalType":"address"},{"name":"b","type":"uint256","internalType":"uint256"},{"name":"s","type":"string","internalType":"string"}],"outputs":[{"name":"","type":"bytes32","internalType":"bytes32"}],"stateMutability":"pure"},{"type":"function","name":"owners","inputs":[{"name":"","type":"uint256","internalType":"uint256"}],"outputs":[{"name":"","type":"address","internalType":"address"}],"stateMutability":"view"},{"type":"function","name":"proposalCount","inputs":[],"outputs":[{"name":"","type":"uint256","internalType":"uint256"}],"stateMutability":"view"},{"type":"function","name":"proposals","inputs":[{"name":"","type":"uint256","internalType":"uint256"}],"outputs":[{"name":"proposer","type":"address","internalType":"address"},{"name":"to","type":"address","internalType":"address"},{"name":"value","type":"uint256","internalType":"uint256"},{"name":"data","type":"bytes","internalType":"bytes"},{"name":"confirmations","type":"uint256","internalType":"uint256"},{"name":"executed","type":"bool","internalType":"bool"},{"name":"createdAt","type":"uint256","internalType":"uint256"}],"stateMutability":"view"},{"type":"function","name":"proposeTransaction","inputs":[{"name":"to","type":"address","internalType":"address"},{"name":"value","type":"uint256","internalType":"uint256"},{"name":"data","type":"bytes","internalType":"bytes"}],"outputs":[{"name":"","type":"uint256","internalType":"uint256"}],"stateMutability":"nonpayable"},{"type":"function","name":"removeOwner","inputs":[{"name":"owner","type":"address","internalType":"address"}],"outputs":[],"stateMutability":"nonpayable"},{"type":"function","name":"splitSignature","inputs":[{"name":"sig","type":"bytes","internalType":"bytes"}],"outputs":[{"name":"v","type":"uint8","internalType":"uint8"},{"name":"r","type":"bytes32","internalType":"bytes32"},{"name":"s","type":"bytes32","internalType":"bytes32"}],"stateMutability":"pure"},{"type":"function","name":"threshold","inputs":[],"outputs":[{"name":"","type":"uint256","internalType":"uint256"}],"stateMutability":"view"},{"type":"event","name":"Cancelled","inputs":[{"name":"proposalId","type":"uint256","indexed":true,"internalType":"uint256"},{"name":"canceller","type":"address","indexed":true,"internalType":"address"}],"anonymous":false},{"type":"event","name":"Confirmed","inputs":[{"name":"proposalId","type":"uint256","indexed":true,"internalType":"uint256"},{"name":"confirmer","type":"address","indexed":true,"internalType":"address"}],"anonymous":false},{"type":"event","name":"Executed","inputs":[{"name":"proposalId","type":"uint256","indexed":true,"internalType":"uint256"},{"name":"executor","type":"address","indexed":true,"internalType":"address"},{"name":"success","type":"bool","indexed":false,"internalType":"bool"},{"name":"result","type":"bytes","indexed":false,"internalType":"bytes"}],"anonymous":false},{"type":"event","name":"OwnerAdded","inputs":[{"name":"newOwner","type":"address","indexed":true,"internalType":"address"}],"anonymous":false},{"type":"event","name":"OwnerRemoved","inputs":[{"name":"removedOwner","type":"address","indexed":true,"internalType":"address"}],"anonymous":false},{"type":"event","name":"ProposalCreated","inputs":[{"name":"proposalId","type":"uint256","indexed":true,"internalType":"uint256"},{"name":"proposer","type":"address","indexed":true,"internalType":"address"},{"name":"to","type":"address","indexed":true,"internalType":"address"},{"name":"value","type":"uint256","indexed":false,"internalType":"uint256"}],"anonymous":false},{"type":"event","name":"ThresholdChanged","inputs":[{"name":"newThreshold","type":"uint256","indexed":false,"internalType":"uint256"}],"anonymous":false}],"bytecode":{"object":"0x60806040526115958038038061001481610205565b92833981016040828203126102015781516001600160401b0381116102015782019181601f84011215610201578251926001600160401b03841161017f578360051b926020610064818601610205565b8096815201916020839582010191821161020157602001915b8183106101e15750505060200151918281511015806101d8575b15610193575f5b81518110156100d557600190818060a01b0360208260051b85010151165f528160205260405f208260ff198254161790550161009e565b5051906001600160401b03821161017f5768010000000000000000821161017f575f54825f5580831061014f575b505f8080525f5160206115755f395f51905f52905b838110610132578460025560405161134a908161022b8239f35b82516001600160a01b031681830155602090920191600101610118565b5f80525f5160206115755f395f51905f529081019083015b8181106101745750610103565b5f8155600101610167565b634e487b7160e01b5f52604160045260245ffd5b60405162461bcd60e51b815260206004820152601860248201527f696e76616c6964206f776e6572732f7468726573686f6c6400000000000000006044820152606490fd5b50821515610097565b82516001600160a01b03811681036102015781526020928301920161007d565b5f80fd5b6040519190601f01601f191682016001600160401b0381118382101761017f5760405256fe6080604052600436101561001a575b3615610018575f80fd5b005b5f3560e01c8062a0d28f14610158578063013cf08b14610153578063025e7c271461014e578063173825d9146101495780632f54bf6e146101445780633380c0d81461013f57806342cde4e81461013a5780635e90852d14610135578063694e80c3146101305780636fa6ae781461012b5780636ff1c9bc146101265780637065cb4814610121578063a0e67e2b1461011c578063a7bb580314610117578063ab585e6a14610112578063c01a8c841461010d578063c7f758a814610108578063d714b61214610103578063da35c664146100fe5763ee22610b0361000e57610ed9565b610ebc565b610d07565b610c9c565b610bea565b610b84565b610b12565b610a39565b61094d565b6108cc565b6108aa565b610813565b610729565b61069e565b6105b1565b610571565b610444565b6103db565b61033c565b346101b55760203660031901126101b55760043567ffffffffffffffff81116101b557366023820112156101b557806004013567ffffffffffffffff81116101b5573660248260051b840101116101b55760246100189201610ef5565b5f80fd5b90600182811c921680156101e7575b60208310146101d357565b634e487b7160e01b5f52602260045260245ffd5b91607f16916101c8565b634e487b7160e01b5f52604160045260245ffd5b90601f8019910116810190811067ffffffffffffffff82111761022757604052565b6101f1565b9060405191825f82549261023f846101b9565b80845293600181169081156102aa5750600114610266575b5061026492500383610205565b565b90505f9291925260205f20905f915b81831061028e575050906020610264928201015f610257565b6020919350806001915483858901015201910190918492610275565b90506020925061026494915060ff191682840152151560051b8201015f610257565b805180835260209291819084018484015e5f828201840152601f01601f1916010190565b93909261032b9260c0969998979460018060a01b0316865260018060a01b03166020860152604085015260e0606085015260e08401906102cc565b956080830152151560a08201520152565b346101b55760203660031901126101b5576004355f52600460205260405f2060018060a01b038154166103a860018060a01b03600184015416926002810154906103886003820161022c565b600482015490600660ff60058501541693015493604051978897886102f0565b0390f35b634e487b7160e01b5f52603260045260245ffd5b5f548110156103d6575f805260205f2001905f90565b6103ac565b346101b55760203660031901126101b5576004355f548110156101b5575f80527f290decd9548b62a8d60345a988386fc84ba6bc95484008f6362f93160ef3e56301546040516001600160a01b039091168152602090f35b6001600160a01b038116036101b557565b346101b55760203660031901126101b55760043561046181610433565b6001600160a01b0381165f8181526001602052604090205490919060ff1661048557005b6001600160a01b03165f908152600160205260408120805460ff191690555b5f54908181101561056a57826104d36104bc836103c0565b90546001600160a01b039260039290921b1c821690565b16146104e35760019150016104a4565b6105186105126104fd6104f861053c95610f32565b6103c0565b905460039190911b1c6001600160a01b031690565b916103c0565b81546001600160a01b0393841660039290921b91821b9390911b1916919091179055565b610544610f40565b7f58619076adf5bb0943d100ef88d52d7c3fd691b19d3a9071b555b651fbf418da5f80a2005b5050610544565b346101b55760203660031901126101b55760043561058e81610433565b60018060a01b03165f526001602052602060ff60405f2054166040519015158152f35b346101b55760203660031901126101b557600435805f5260046020526105e160ff600560405f2001541615610fa3565b805f5260046020525f6006604082208281558260018201558260028201556003810161060d81546101b9565b908161064c575b5050826004820155826005820155015533907f26deca31ff8139a06c52453ce8985d34f7648a6d9af1d283c4063d052c355a0f5f80a3005b601f821160011461066357849055505b5f80610614565b610689610699926001601f61067b855f5260205f2090565b920160051c82019101610fe2565b5f81815260208120918190559055565b61065c565b346101b5575f3660031901126101b5576020600254604051908152f35b9181601f840112156101b55782359167ffffffffffffffff83116101b557602083818601950101116101b557565b60606003198201126101b55760043561070181610433565b91602435916044359067ffffffffffffffff82116101b557610725916004016106bb565b9091565b346101b557610737366106e9565b60035493909290915f19851461080e5760019490940160038190555f81815260046020526040902080546001600160a01b031916331781556103a895919490916107a891906001840180546001600160a01b0319166001600160a01b0388161790558460028501556003840161103b565b5f600482015560058101805460ff19169055426006909101556040519081526001600160a01b039190911690339083907f6d4365eeea2290a1fb5155f6f527bb01f4a2797dea12f20abc314effacafd20290602090a46040519081529081906020820190565b610f1e565b346101b55760203660031901126101b5576004358015158061089f575b15610866576020817f6c4ce60fd690e1216286a10b875c5662555f10774484e58142cedd7a90781baa92600255604051908152a1005b60405162461bcd60e51b81526020600482015260116024820152701a5b9d985b1a59081d1a1c995cda1bdb19607a1b6044820152606490fd5b505f54811115610830565b346101b55760403660031901126101b557602060043560243560405191018152f35b346101b55760203660031901126101b5576004356108e981610433565b4215610920575f80808093479082908215610916575b6001600160a01b031690f11561091157005b611104565b6108fc91506108ff565b60405162461bcd60e51b81526020600482015260056024820152643732bb32b960d91b6044820152606490fd5b346101b55760203660031901126101b55760043561096a81610433565b6001600160a01b0381165f8181526001602052604090205490919060ff161561098f57005b5f549068010000000000000000821015610227576105188260016109b594015f556103c0565b805f5260016020526109d160405f20600160ff19825416179055565b7f994a936646fe87ffe4f1e469d3d6aa417d6b855598397f323de5b449f765f0c35f80a2005b60206040818301928281528451809452019201905f5b818110610a1a5750505090565b82516001600160a01b0316845260209384019390920191600101610a0d565b346101b5575f3660031901126101b5576040518060205f549182815201905f80527f290decd9548b62a8d60345a988386fc84ba6bc95484008f6362f93160ef3e563905f5b818110610aa1576103a885610a9581870382610205565b604051918291826109f7565b82546001600160a01b0316845260209093019260019283019201610a7e565b67ffffffffffffffff811161022757601f01601f191660200190565b929192610ae882610ac0565b91610af66040519384610205565b8294818452818301116101b5578281602093845f960137010152565b346101b55760203660031901126101b55760043567ffffffffffffffff81116101b557366023820112156101b557610b6e610b596060923690602481600401359101610adc565b602081015190606060408201519101515f1a92565b9060ff6040519316835260208301526040820152f35b346101b5576020610bdf6054610b99366106e9565b8060409694969593929551958693898501986bffffffffffffffffffffffff199060601b16895260348501528484013781015f838201520301601f198101835282610205565b519020604051908152f35b346101b55760203660031901126101b557600435805f52600460205260405f20610c1b60ff60058301541615610fa3565b335f90815260078201602081905260409091205490919060ff1615610c3c57005b610c67610c5a6004933360018060a01b03165f5260205260405f2090565b805460ff19166001179055565b01610c72815461111c565b905533907f6f220d98c15dbd07fdc24781b682ea34f92411fc61b83c761dd927afbe02d3fd5f80a3005b346101b55760203660031901126101b5576004355f52600460205260405f2060018060a01b038154166103a860018060a01b03600184015416926002810154600482015460ff60058401541691610cfa60036006860154950161022c565b90604051978897886102f0565b346101b55760803660031901126101b557600435610d2481610433565b6024359060443567ffffffffffffffff81116101b557610d489036906004016106bb565b60649291923567ffffffffffffffff81116101b5575f610e43610b59610e1f610d7760209536906004016106bb565b929088610d85368a8d610adc565b888151910120610dd38d610dc56040519384928d8401968791605493916bffffffffffffffffffffffff199060601b168352601483015260348201520190565b03601f198101835282610205565b519020604051610e1481610dc58b82019485603c917f19457468657265756d205369676e6564204d6573736167653a0a3332000000008252601c8201520190565b519020933691610adc565b6040805194855260ff90931660208501529183015260608201529081906080820190565b838052039060015afa15610911575f938493610e6960018060a01b03865116151561112a565b610e786040518094819361110f565b03925af15f7f40ad9bda067c2d6c5f31b3101e5f886043d36c6a6258478f17a2152af947a196610eb7610ea961116a565b604051918291339683611199565b0390a3005b346101b5575f3660031901126101b5576020600354604051908152f35b346101b55760203660031901126101b55761001860043561126b565b915f5b82811015610f1857600190610f128160051b86013561126b565b01610ef8565b50915050565b634e487b7160e01b5f52601160045260245ffd5b5f1981019190821161080e57565b5f548015610f8f575f198101905f548210156103d6575f8080527f290decd9548b62a8d60345a988386fc84ba6bc95484008f6362f93160ef3e56290910180546001600160a01b031916905555565b634e487b7160e01b5f52603160045260245ffd5b15610faa57565b60405162461bcd60e51b815260206004820152601060248201526f185b1c9958591e48195e1958dd5d195960821b6044820152606490fd5b818110610fed575050565b5f8155600101610fe2565b9190601f811161100757505050565b610264925f5260205f20906020601f840160051c83019310611031575b601f0160051c0190610fe2565b9091508190611024565b90929167ffffffffffffffff8111610227576110618161105b84546101b9565b84610ff8565b5f601f821160011461109f5781906110909394955f92611094575b50508160011b915f199060031b1c19161790565b9055565b013590505f8061107c565b601f198216946110b2845f5260205f2090565b915f5b8781106110ec5750836001959697106110d3575b505050811b019055565b01355f19600384901b60f8161c191690555f80806110c9565b909260206001819286860135815501940191016110b5565b6040513d5f823e3d90fd5b908092918237015f815290565b906001820180921161080e57565b1561113157565b60405162461bcd60e51b8152602060048201526011602482015270696e76616c6964207369676e617475726560781b6044820152606490fd5b3d15611194573d9061117b82610ac0565b916111896040519384610205565b82523d5f602084013e565b606090565b6040906111b293921515815281602082015201906102cc565b90565b156111bc57565b60405162461bcd60e51b815260206004820152601860248201527f6e6f7420656e6f75676820636f6e6669726d6174696f6e7300000000000000006044820152606490fd5b5f9291815491611210836101b9565b9260018116908115611258575060011461122957505050565b90919293505f5260205f205f905b8382106112445750500190565b600181602092548486015201910190611237565b60ff191683525050811515909102019150565b61026490805f52600460205260405f20905f80600584019361129961129460ff87541615151590565b610fa3565b6112ab600482015460025411156111b5565b60018101546003906001600160a01b0316916002810154906112d36040518094819301611201565b03925af1907f40ad9bda067c2d6c5f31b3101e5f886043d36c6a6258478f17a2152af947a196611304610ea961116a565b0390a3805460ff1916600117905556fea2646970667358221220479c16fa7fc11ba02fe1e8668c4f867802d6b1720c8170f67499ebacd7bea50d64736f6c634300081e0033290decd9548b62a8d60345a988386fc84ba6bc95484008f6362f93160ef3e563","linkReferences":{}},"methodIdentifiers":{"addOwner(address)":"7065cb48","batchExecute(uint256[])":"00a0d28f","cancelTransaction(uint256)":"3380c0d8","changeThreshold(uint256)":"694e80c3","confirmTransaction(uint256)":"c01a8c84","dangerousAdd(uint256,uint256)":"6fa6ae78","emergencyWithdraw(address)":"6ff1c9bc","executeTransaction(uint256)":"ee22610b","executeWithSignature(address,uint256,bytes,bytes)":"d714b612","getOwners()":"a0e67e2b","getProposal(uint256)":"c7f758a8","isOwner(address)":"2f54bf6e","naiveHash(address,uint256,string)":"ab585e6a","owners(uint256)":"025e7c27","proposalCount()":"da35c664","proposals(uint256)":"013cf08b","proposeTransaction(address,uint256,bytes)":"5e90852d","removeOwner(address)":"173825d9","splitSignature(bytes)":"a7bb5803","threshold()":"42cde4e8"},"id":17}