{"abi":[{"type":"constructor","inputs":[{"name":"_owners","type":"address[]","internalType":"address[]"},{"name":"_threshold","type":"uint256","internalType":"uint256"}],"stateMutability":"payable"},{"type":"receive","stateMutability":"payable"},{"type":"function","name":"addOwner","inputs":[{"name":"newOwner","type":"address","internalType":"address"}],"outputs":[],"stateMutability":"nonpayable"},{"type":"function","name":"batchConfirm","inputs":[{"name":"ids","type":"uint256[]","internalType":"uint256[]"}],"outputs":[],"stateMutability":"nonpayable"},{"type":"function","name":"batchExecute","inputs":[{"name":"ids","type":"uint256[]","internalType":"uint256[]"}],"outputs":[],"stateMutability":"nonpayable"},{"type":"function","name":"batchPropose","inputs":[{"name":"tos","type":"address[]","internalType":"address[]"},{"name":"values","type":"uint256[]","internalType":"uint256[]"},{"name":"datas","type":"bytes[]","internalType":"bytes[]"}],"outputs":[],"stateMutability":"nonpayable"},{"type":"function","name":"cancelTransaction","inputs":[{"name":"proposalId","type":"uint256","internalType":"uint256"}],"outputs":[],"stateMutability":"nonpayable"},{"type":"function","name":"changeThreshold","inputs":[{"name":"newThreshold","type":"uint256","internalType":"uint256"}],"outputs":[],"stateMutability":"nonpayable"},{"type":"function","name":"confirmTransaction","inputs":[{"name":"proposalId","type":"uint256","internalType":"uint256"}],"outputs":[],"stateMutability":"nonpayable"},{"type":"function","name":"dangerousAdd","inputs":[{"name":"a","type":"uint256","internalType":"uint256"},{"name":"b","type":"uint256","internalType":"uint256"}],"outputs":[{"name":"","type":"uint256","internalType":"uint256"}],"stateMutability":"pure"},{"type":"function","name":"emergencyWithdraw","inputs":[{"name":"to","type":"address","internalType":"address payable"}],"outputs":[],"stateMutability":"nonpayable"},{"type":"function","name":"emitProposalSnapshot","inputs":[{"name":"proposalId","type":"uint256","internalType":"uint256"}],"outputs":[],"stateMutability":"nonpayable"},{"type":"function","name":"executeTransaction","inputs":[{"name":"proposalId","type":"uint256","internalType":"uint256"}],"outputs":[],"stateMutability":"nonpayable"},{"type":"function","name":"executeWithSignature","inputs":[{"name":"to","type":"address","internalType":"address"},{"name":"value","type":"uint256","internalType":"uint256"},{"name":"data","type":"bytes","internalType":"bytes"},{"name":"signature","type":"bytes","internalType":"bytes"}],"outputs":[],"stateMutability":"nonpayable"},{"type":"function","name":"getGovernanceState","inputs":[],"outputs":[{"name":"","type":"address[]","internalType":"address[]"},{"name":"","type":"uint256","internalType":"uint256"}],"stateMutability":"view"},{"type":"function","name":"getOwners","inputs":[],"outputs":[{"name":"","type":"address[]","internalType":"address[]"}],"stateMutability":"view"},{"type":"function","name":"getProposal","inputs":[{"name":"proposalId","type":"uint256","internalType":"uint256"}],"outputs":[{"name":"proposer","type":"address","internalType":"address"},{"name":"to","type":"address","internalType":"address"},{"name":"value","type":"uint256","internalType":"uint256"},{"name":"data","type":"bytes","internalType":"bytes"},{"name":"confirmations","type":"uint256","internalType":"uint256"},{"name":"executed","type":"bool","internalType":"bool"},{"name":"createdAt","type":"uint256","internalType":"uint256"}],"stateMutability":"view"},{"type":"function","name":"getProposalConfirmations","inputs":[{"name":"proposalId","type":"uint256","internalType":"uint256"}],"outputs":[{"name":"","type":"address[]","internalType":"address[]"}],"stateMutability":"view"},{"type":"function","name":"isOwner","inputs":[{"name":"","type":"address","internalType":"address"}],"outputs":[{"name":"","type":"bool","internalType":"bool"}],"stateMutability":"view"},{"type":"function","name":"naiveHash","inputs":[{"name":"a","type":"address","internalType":"address"},{"name":"b","type":"uint256","internalType":"uint256"},{"name":"s","type":"string","internalType":"string"}],"outputs":[{"name":"","type":"bytes32","internalType":"bytes32"}],"stateMutability":"pure"},{"type":"function","name":"owners","inputs":[{"name":"","type":"uint256","internalType":"uint256"}],"outputs":[{"name":"","type":"address","internalType":"address"}],"stateMutability":"view"},{"type":"function","name":"proposalCount","inputs":[],"outputs":[{"name":"","type":"uint256","internalType":"uint256"}],"stateMutability":"view"},{"type":"function","name":"proposals","inputs":[{"name":"","type":"uint256","internalType":"uint256"}],"outputs":[{"name":"proposer","type":"address","internalType":"address"},{"name":"to","type":"address","internalType":"address"},{"name":"value","type":"uint256","internalType":"uint256"},{"name":"data","type":"bytes","internalType":"bytes"},{"name":"confirmations","type":"uint256","internalType":"uint256"},{"name":"executed","type":"bool","internalType":"bool"},{"name":"createdAt","type":"uint256","internalType":"uint256"}],"stateMutability":"view"},{"type":"function","name":"proposeTransaction","inputs":[{"name":"to","type":"address","internalType":"address"},{"name":"value","type":"uint256","internalType":"uint256"},{"name":"data","type":"bytes","internalType":"bytes"}],"outputs":[{"name":"","type":"uint256","internalType":"uint256"}],"stateMutability":"nonpayable"},{"type":"function","name":"removeOwner","inputs":[{"name":"owner","type":"address","internalType":"address"}],"outputs":[],"stateMutability":"nonpayable"},{"type":"function","name":"splitSignature","inputs":[{"name":"sig","type":"bytes","internalType":"bytes"}],"outputs":[{"name":"v","type":"uint8","internalType":"uint8"},{"name":"r","type":"bytes32","internalType":"bytes32"},{"name":"s","type":"bytes32","internalType":"bytes32"}],"stateMutability":"pure"},{"type":"function","name":"threshold","inputs":[],"outputs":[{"name":"","type":"uint256","internalType":"uint256"}],"stateMutability":"view"},{"type":"event","name":"Cancelled","inputs":[{"name":"proposalId","type":"uint256","indexed":true,"internalType":"uint256"},{"name":"canceller","type":"address","indexed":true,"internalType":"address"}],"anonymous":false},{"type":"event","name":"Confirmed","inputs":[{"name":"proposalId","type":"uint256","indexed":true,"internalType":"uint256"},{"name":"confirmer","type":"address","indexed":true,"internalType":"address"}],"anonymous":false},{"type":"event","name":"Executed","inputs":[{"name":"proposalId","type":"uint256","indexed":true,"internalType":"uint256"},{"name":"executor","type":"address","indexed":true,"internalType":"address"},{"name":"success","type":"bool","indexed":false,"internalType":"bool"},{"name":"result","type":"bytes","indexed":false,"internalType":"bytes"}],"anonymous":false},{"type":"event","name":"OwnerAdded","inputs":[{"name":"newOwner","type":"address","indexed":true,"internalType":"address"}],"anonymous":false},{"type":"event","name":"OwnerRemoved","inputs":[{"name":"removedOwner","type":"address","indexed":true,"internalType":"address"}],"anonymous":false},{"type":"event","name":"ProposalCreated","inputs":[{"name":"proposalId","type":"uint256","indexed":true,"internalType":"uint256"},{"name":"proposer","type":"address","indexed":true,"internalType":"address"},{"name":"to","type":"address","indexed":true,"internalType":"address"},{"name":"value","type":"uint256","indexed":false,"internalType":"uint256"}],"anonymous":false},{"type":"event","name":"ProposalSnapshot","inputs":[{"name":"proposalId","type":"uint256","indexed":true,"internalType":"uint256"},{"name":"proposer","type":"address","indexed":false,"internalType":"address"},{"name":"to","type":"address","indexed":false,"internalType":"address"},{"name":"value","type":"uint256","indexed":false,"internalType":"uint256"},{"name":"confirmations","type":"uint256","indexed":false,"internalType":"uint256"},{"name":"executed","type":"bool","indexed":false,"internalType":"bool"},{"name":"createdAt","type":"uint256","indexed":false,"internalType":"uint256"}],"anonymous":false},{"type":"event","name":"ThresholdChanged","inputs":[{"name":"newThreshold","type":"uint256","indexed":false,"internalType":"uint256"}],"anonymous":false}],"bytecode":{"object":"0x6080604052611a8d8038038061001481610205565b92833981016040828203126102015781516001600160401b0381116102015782019181601f84011215610201578251926001600160401b03841161017f578360051b926020610064818601610205565b8096815201916020839582010191821161020157602001915b8183106101e15750505060200151918281511015806101d8575b15610193575f5b81518110156100d557600190818060a01b0360208260051b85010151165f528160205260405f208260ff198254161790550161009e565b5051906001600160401b03821161017f5768010000000000000000821161017f575f54825f5580831061014f575b505f8080525f516020611a6d5f395f51905f52905b8381106101325784600255604051611842908161022b8239f35b82516001600160a01b031681830155602090920191600101610118565b5f80525f516020611a6d5f395f51905f529081019083015b8181106101745750610103565b5f8155600101610167565b634e487b7160e01b5f52604160045260245ffd5b60405162461bcd60e51b815260206004820152601860248201527f696e76616c6964206f776e6572732f7468726573686f6c6400000000000000006044820152606490fd5b50821515610097565b82516001600160a01b03811681036102015781526020928301920161007d565b5f80fd5b6040519190601f01601f191682016001600160401b0381118382101761017f5760405256fe6080604052600436101561001a575b3615610018575f80fd5b005b5f3560e01c8062a0d28f146101a8578063013cf08b146101a3578063025e7c271461019e5780631000b11c14610199578063173825d9146101945780632c5b9c8d1461018f5780632f54bf6e1461018a5780633380c0d81461018557806342cde4e814610180578063592536aa1461017b5780635e90852d146101765780636239152014610171578063694e80c31461016c5780636bfb2e73146101675780636fa6ae78146101625780636ff1c9bc1461015d5780637065cb4814610158578063a0e67e2b14610153578063a7bb58031461014e578063ab585e6a14610149578063c01a8c8414610144578063c7f758a81461013f578063d714b6121461013a578063da35c664146101355763ee22610b0361000e5761117a565b61115d565b610faa565b610f3f565b610f23565b610ebd565b610e4c565b610de0565b610d36565b610cba565b610c98565b610bff565b610b68565b610b31565b610994565b6107f3565b6107d6565b6106e9565b6106a9565b61066c565b61053f565b6104fb565b610467565b6103c8565b61020f565b9181601f840112156101dd578235916001600160401b0383116101dd576020808501948460051b0101116101dd57565b5f80fd5b60206003198201126101dd57600435906001600160401b0382116101dd5761020b916004016101ad565b9091565b346101dd5761021d366101e1565b905f5b82811061022957005b8061024061023a6001938686611196565b35611763565b01610220565b90600182811c92168015610274575b602083101461026057565b634e487b7160e01b5f52602260045260245ffd5b91607f1691610255565b634e487b7160e01b5f52604160045260245ffd5b90601f801991011681019081106001600160401b038211176102b357604052565b61027e565b9060405191825f8254926102cb84610246565b808452936001811690811561033657506001146102f2575b506102f092500383610292565b565b90505f9291925260205f20905f915b81831061031a5750509060206102f0928201015f6102e3565b6020919350806001915483858901015201910190918492610301565b9050602092506102f094915060ff191682840152151560051b8201015f6102e3565b805180835260209291819084018484015e5f828201840152601f01601f1916010190565b9390926103b79260c0969998979460018060a01b0316865260018060a01b03166020860152604085015260e0606085015260e0840190610358565b956080830152151560a08201520152565b346101dd5760203660031901126101dd576004355f52600460205260405f2060018060a01b0381541661043460018060a01b0360018401541692600281015490610414600382016102b8565b600482015490600660ff600585015416930154936040519788978861037c565b0390f35b634e487b7160e01b5f52603260045260245ffd5b5f54811015610462575f805260205f2001905f90565b610438565b346101dd5760203660031901126101dd576004355f548110156101dd575f80527f290decd9548b62a8d60345a988386fc84ba6bc95484008f6362f93160ef3e56301546040516001600160a01b039091168152602090f35b90602080835192838152019201905f5b8181106104dc5750505090565b82516001600160a01b03168452602093840193909201916001016104cf565b346101dd5760203660031901126101dd5761043461051a60043561122a565b6040519182916020835260208301906104bf565b6001600160a01b038116036101dd57565b346101dd5760203660031901126101dd5760043561055c8161052e565b6001600160a01b0381165f8181526001602052604090205490919060ff1661058057005b6001600160a01b03165f908152600160205260408120805460ff191690555b5f54908181101561066557826105ce6105b78361044c565b90546001600160a01b039260039290921b1c821690565b16146105de57600191500161059f565b61061361060d6105f86105f36106379561133c565b61044c565b905460039190911b1c6001600160a01b031690565b9161044c565b81546001600160a01b0393841660039290921b91821b9390911b1916919091179055565b61063f61134a565b7f58619076adf5bb0943d100ef88d52d7c3fd691b19d3a9071b555b651fbf418da5f80a2005b505061063f565b346101dd575f3660031901126101dd5761069f60025461068a6113ad565b906040519283926040845260408401906104bf565b9060208301520390f35b346101dd5760203660031901126101dd576004356106c68161052e565b60018060a01b03165f526001602052602060ff60405f2054166040519015158152f35b346101dd5760203660031901126101dd57600435805f52600460205261071960ff600560405f20015416156113fc565b805f5260046020525f600660408220828155826001820155826002820155600381016107458154610246565b9081610784575b5050826004820155826005820155015533907f26deca31ff8139a06c52453ce8985d34f7648a6d9af1d283c4063d052c355a0f5f80a3005b601f821160011461079b57849055505b5f8061074c565b6107c16107d1926001601f6107b3855f5260205f2090565b920160051c8201910161143b565b5f81815260208120918190559055565b610794565b346101dd575f3660031901126101dd576020600254604051908152f35b346101dd5760603660031901126101dd576004356001600160401b0381116101dd576108239036906004016101ad565b906024356001600160401b0381116101dd576108439036906004016101ad565b9190926044356001600160401b0381116101dd576108659036906004016101ad565b94909184811480610923575b61087a90611451565b5f5b81811061088557005b80602061089e6108996108d494868a611196565b61148f565b6108a9838a88611196565b35906108b6848c8a61149c565b604051635e90852d60e01b81529687948594919391600486016114ec565b03815f305af191821561091e576001926108f0575b500161087c565b6109109060203d8111610917575b6109088183610292565b8101906114dd565b505f6108e9565b503d6108fe565b611526565b50808614610871565b9181601f840112156101dd578235916001600160401b0383116101dd57602083818601950101116101dd57565b60606003198201126101dd576004356109718161052e565b9160243591604435906001600160401b0382116101dd5761020b9160040161092c565b346101dd576109a236610959565b9290916109b0600354611217565b60038190555f81815260046020526040902080546001600160a01b0319163317815590936001820180546001600160a01b0319166001600160a01b03861617905582600283015560038201906001600160401b0387116102b357610a1e87610a188454610246565b84611531565b5f90601f8811600114610ac4579680610a5092610434995f92610ab9575b50508160011b915f199060031b1c19161790565b90555b5f600482015560058101805460ff19169055426006909101556040519081526001600160a01b039190911690339083907f6d4365eeea2290a1fb5155f6f527bb01f4a2797dea12f20abc314effacafd20290602090a46040519081529081906020820190565b013590505f80610a3c565b601f19881691610ad7845f5260205f2090565b925f5b818110610b19575091600193918a6104349b9410610b00575b505050811b019055610a53565b01355f19600384901b60f8161c191690555f8080610af3565b91936020600181928787013581550195019201610ada565b346101dd57610b3f366101e1565b905f5b828110610b4b57005b80610b62610b5c6001938686611196565b35611581565b01610b42565b346101dd5760203660031901126101dd5760043580151580610bf4575b15610bbb576020817f6c4ce60fd690e1216286a10b875c5662555f10774484e58142cedd7a90781baa92600255604051908152a1005b60405162461bcd60e51b81526020600482015260116024820152701a5b9d985b1a59081d1a1c995cda1bdb19607a1b6044820152606490fd5b505f54811115610b85565b346101dd5760203660031901126101dd57600435805f5260046020527f95a0cdf3ec9ba1007a5009d008a5eb69340799a6134b398d3e29cb0305ba1e3260c060405f2060018060a01b038154169060018060a01b03600182015416906002810154600482015490600660ff600585015416930154936040519586526020860152604085015260608401521515608083015260a0820152a2005b346101dd5760403660031901126101dd57602060043560243560405191018152f35b346101dd5760203660031901126101dd57600435610cd78161052e565b4215610d09575f80808093479082908215610cff575b6001600160a01b031690f11561091e57005b6108fc9150610ced565b60405162461bcd60e51b81526020600482015260056024820152643732bb32b960d91b6044820152606490fd5b346101dd5760203660031901126101dd57600435610d538161052e565b6001600160a01b0381165f8181526001602052604090205490919060ff1615610d7857005b5f5490680100000000000000008210156102b357610613826001610d9e94015f5561044c565b805f526001602052610dba60405f20600160ff19825416179055565b7f994a936646fe87ffe4f1e469d3d6aa417d6b855598397f323de5b449f765f0c35f80a2005b346101dd575f3660031901126101dd5761043461051a6113ad565b6001600160401b0381116102b357601f01601f191660200190565b929192610e2282610dfb565b91610e306040519384610292565b8294818452818301116101dd578281602093845f960137010152565b346101dd5760203660031901126101dd576004356001600160401b0381116101dd57366023820112156101dd57610ea7610e926060923690602481600401359101610e16565b602081015190606060408201519101515f1a92565b9060ff6040519316835260208301526040820152f35b346101dd576020610f186054610ed236610959565b8060409694969593929551958693898501986bffffffffffffffffffffffff199060601b16895260348501528484013781015f838201520301601f198101835282610292565b519020604051908152f35b346101dd5760203660031901126101dd57610018600435611581565b346101dd5760203660031901126101dd576004355f52600460205260405f2060018060a01b0381541661043460018060a01b03600184015416926002810154600482015460ff60058401541691610f9d6003600686015495016102b8565b906040519788978861037c565b346101dd5760803660031901126101dd57600435610fc78161052e565b602435906044356001600160401b0381116101dd57610fea90369060040161092c565b6064929192356001600160401b0381116101dd575f6110e4610e926110c0611018602095369060040161092c565b929088611026368a8d610e16565b8881519101206110748d6110666040519384928d8401968791605493916bffffffffffffffffffffffff199060601b168352601483015260348201520190565b03601f198101835282610292565b5190206040516110b5816110668b82019485603c917f19457468657265756d205369676e6564204d6573736167653a0a3332000000008252601c8201520190565b519020933691610e16565b6040805194855260ff90931660208501529183015260608201529081906080820190565b838052039060015afa1561091e575f93849361110a60018060a01b038651161515611625565b61111960405180948193611574565b03925af15f7f40ad9bda067c2d6c5f31b3101e5f886043d36c6a6258478f17a2152af947a19661115861114a611665565b604051918291339683611694565b0390a3005b346101dd575f3660031901126101dd576020600354604051908152f35b346101dd5760203660031901126101dd57610018600435611763565b91908110156104625760051b0190565b6001600160401b0381116102b35760051b60200190565b906111c7826111a6565b6111d46040519182610292565b82815280926111e5601f19916111a6565b0190602036910137565b80518210156104625760209160051b010190565b634e487b7160e01b5f52601160045260245ffd5b5f1981146112255760010190565b611203565b61123c905f52600460205260405f2090565b90600482015461124b816111bd565b905f905f9460075f549101955b8181106112c857505090809293945010611270575090565b611279816111bd565b915f5b8281106112895750505090565b806112c26112a961129c600194866111ef565b516001600160a01b031690565b6112b383886111ef565b6001600160a01b039091169052565b0161127c565b6112fa6112f36112da6105f88461044c565b6001600160a01b03165f90815260208a90526040902090565b5460ff1690565b611307575b600101611258565b828410156112ff579261133460019161132f6113256105f88861044c565b6112b3838a6111ef565b611217565b9390506112ff565b5f1981019190821161122557565b5f548015611399575f198101905f54821015610462575f8080527f290decd9548b62a8d60345a988386fc84ba6bc95484008f6362f93160ef3e56290910180546001600160a01b031916905555565b634e487b7160e01b5f52603160045260245ffd5b604051905f5480835282602081015f805260205f20925f5b8181106113da5750506102f092500383610292565b84546001600160a01b03168352600194850194879450602090930192016113c5565b1561140357565b60405162461bcd60e51b815260206004820152601060248201526f185b1c9958591e48195e1958dd5d195960821b6044820152606490fd5b818110611446575050565b5f815560010161143b565b1561145857565b60405162461bcd60e51b815260206004820152600f60248201526e0d8cadccee8d040dad2e6dac2e8c6d608b1b6044820152606490fd5b356114998161052e565b90565b91908110156104625760051b81013590601e19813603018212156101dd5701908135916001600160401b0383116101dd5760200182360381136101dd579190565b908160209103126101dd575190565b9284926080959260018060a01b03168552602085015260606040850152816060850152848401375f828201840152601f01601f1916010190565b6040513d5f823e3d90fd5b9190601f811161154057505050565b6102f0925f5260205f20906020601f840160051c8301931061156a575b601f0160051c019061143b565b909150819061155d565b908092918237015f815290565b805f52600460205260405f2061159e60ff600583015416156113fc565b335f90815260078201602081905260409091205490919060ff16156115c257505050565b6115ed6115e06004933360018060a01b03165f5260205260405f2090565b805460ff19166001179055565b0180549060018201809211611225575533907f6f220d98c15dbd07fdc24781b682ea34f92411fc61b83c761dd927afbe02d3fd5f80a3565b1561162c57565b60405162461bcd60e51b8152602060048201526011602482015270696e76616c6964207369676e617475726560781b6044820152606490fd5b3d1561168f573d9061167682610dfb565b916116846040519384610292565b82523d5f602084013e565b606090565b6040906114999392151581528160208201520190610358565b156116b457565b60405162461bcd60e51b815260206004820152601860248201527f6e6f7420656e6f75676820636f6e6669726d6174696f6e7300000000000000006044820152606490fd5b5f929181549161170883610246565b9260018116908115611750575060011461172157505050565b90919293505f5260205f205f905b83821061173c5750500190565b60018160209254848601520191019061172f565b60ff191683525050811515909102019150565b6102f090805f52600460205260405f20905f80600584019361179161178c60ff87541615151590565b6113fc565b6117a3600482015460025411156116ad565b60018101546003906001600160a01b0316916002810154906117cb60405180948193016116f9565b03925af1907f40ad9bda067c2d6c5f31b3101e5f886043d36c6a6258478f17a2152af947a1966117fc61114a611665565b0390a3805460ff1916600117905556fea2646970667358221220a1c0e1c8460c77020f361ab2fd974840121111c3c46a5e707de8897c4636580964736f6c634300081e0033290decd9548b62a8d60345a988386fc84ba6bc95484008f6362f93160ef3e563","linkReferences":{}},"methodIdentifiers":{"addOwner(address)":"7065cb48","batchConfirm(uint256[])":"62391520","batchExecute(uint256[])":"00a0d28f","batchPropose(address[],uint256[],bytes[])":"592536aa","cancelTransaction(uint256)":"3380c0d8","changeThreshold(uint256)":"694e80c3","confirmTransaction(uint256)":"c01a8c84","dangerousAdd(uint256,uint256)":"6fa6ae78","emergencyWithdraw(address)":"6ff1c9bc","emitProposalSnapshot(uint256)":"6bfb2e73","executeTransaction(uint256)":"ee22610b","executeWithSignature(address,uint256,bytes,bytes)":"d714b612","getGovernanceState()":"2c5b9c8d","getOwners()":"a0e67e2b","getProposal(uint256)":"c7f758a8","getProposalConfirmations(uint256)":"1000b11c","isOwner(address)":"2f54bf6e","naiveHash(address,uint256,string)":"ab585e6a","owners(uint256)":"025e7c27","proposalCount()":"da35c664","proposals(uint256)":"013cf08b","proposeTransaction(address,uint256,bytes)":"5e90852d","removeOwner(address)":"173825d9","splitSignature(bytes)":"a7bb5803","threshold()":"42cde4e8"},"id":0}