{"abi":[{"type":"constructor","inputs":[{"name":"_owners","type":"address[]","internalType":"address[]"},{"name":"_threshold","type":"uint256","internalType":"uint256"}],"stateMutability":"payable"},{"type":"receive","stateMutability":"payable"},{"type":"function","name":"addOwner","inputs":[{"name":"newOwner","type":"address","internalType":"address"}],"outputs":[],"stateMutability":"nonpayable"},{"type":"function","name":"batchConfirm","inputs":[{"name":"ids","type":"uint256[]","internalType":"uint256[]"}],"outputs":[],"stateMutability":"nonpayable"},{"type":"function","name":"batchExecute","inputs":[{"name":"ids","type":"uint256[]","internalType":"uint256[]"}],"outputs":[],"stateMutability":"nonpayable"},{"type":"function","name":"batchPropose","inputs":[{"name":"tos","type":"address[]","internalType":"address[]"},{"name":"values","type":"uint256[]","internalType":"uint256[]"},{"name":"datas","type":"bytes[]","internalType":"bytes[]"}],"outputs":[],"stateMutability":"nonpayable"},{"type":"function","name":"cancelTransaction","inputs":[{"name":"proposalId","type":"uint256","internalType":"uint256"}],"outputs":[],"stateMutability":"nonpayable"},{"type":"function","name":"changeThreshold","inputs":[{"name":"newThreshold","type":"uint256","internalType":"uint256"}],"outputs":[],"stateMutability":"nonpayable"},{"type":"function","name":"confirmTransaction","inputs":[{"name":"proposalId","type":"uint256","internalType":"uint256"}],"outputs":[],"stateMutability":"nonpayable"},{"type":"function","name":"dangerousAdd","inputs":[{"name":"a","type":"uint256","internalType":"uint256"},{"name":"b","type":"uint256","internalType":"uint256"}],"outputs":[{"name":"","type":"uint256","internalType":"uint256"}],"stateMutability":"pure"},{"type":"function","name":"emergencyWithdraw","inputs":[{"name":"to","type":"address","internalType":"address payable"}],"outputs":[],"stateMutability":"nonpayable"},{"type":"function","name":"executeTransaction","inputs":[{"name":"proposalId","type":"uint256","internalType":"uint256"}],"outputs":[],"stateMutability":"nonpayable"},{"type":"function","name":"executeWithSignature","inputs":[{"name":"to","type":"address","internalType":"address"},{"name":"value","type":"uint256","internalType":"uint256"},{"name":"data","type":"bytes","internalType":"bytes"},{"name":"signature","type":"bytes","internalType":"bytes"}],"outputs":[],"stateMutability":"nonpayable"},{"type":"function","name":"getOwners","inputs":[],"outputs":[{"name":"","type":"address[]","internalType":"address[]"}],"stateMutability":"view"},{"type":"function","name":"getProposal","inputs":[{"name":"proposalId","type":"uint256","internalType":"uint256"}],"outputs":[{"name":"proposer","type":"address","internalType":"address"},{"name":"to","type":"address","internalType":"address"},{"name":"value","type":"uint256","internalType":"uint256"},{"name":"data","type":"bytes","internalType":"bytes"},{"name":"confirmations","type":"uint256","internalType":"uint256"},{"name":"executed","type":"bool","internalType":"bool"},{"name":"createdAt","type":"uint256","internalType":"uint256"}],"stateMutability":"view"},{"type":"function","name":"isOwner","inputs":[{"name":"","type":"address","internalType":"address"}],"outputs":[{"name":"","type":"bool","internalType":"bool"}],"stateMutability":"view"},{"type":"function","name":"naiveHash","inputs":[{"name":"a","type":"address","internalType":"address"},{"name":"b","type":"uint256","internalType":"uint256"},{"name":"s","type":"string","internalType":"string"}],"outputs":[{"name":"","type":"bytes32","internalType":"bytes32"}],"stateMutability":"pure"},{"type":"function","name":"owners","inputs":[{"name":"","type":"uint256","internalType":"uint256"}],"outputs":[{"name":"","type":"address","internalType":"address"}],"stateMutability":"view"},{"type":"function","name":"proposalCount","inputs":[],"outputs":[{"name":"","type":"uint256","internalType":"uint256"}],"stateMutability":"view"},{"type":"function","name":"proposals","inputs":[{"name":"","type":"uint256","internalType":"uint256"}],"outputs":[{"name":"proposer","type":"address","internalType":"address"},{"name":"to","type":"address","internalType":"address"},{"name":"value","type":"uint256","internalType":"uint256"},{"name":"data","type":"bytes","internalType":"bytes"},{"name":"confirmations","type":"uint256","internalType":"uint256"},{"name":"executed","type":"bool","internalType":"bool"},{"name":"createdAt","type":"uint256","internalType":"uint256"}],"stateMutability":"view"},{"type":"function","name":"proposeTransaction","inputs":[{"name":"to","type":"address","internalType":"address"},{"name":"value","type":"uint256","internalType":"uint256"},{"name":"data","type":"bytes","internalType":"bytes"}],"outputs":[{"name":"","type":"uint256","internalType":"uint256"}],"stateMutability":"nonpayable"},{"type":"function","name":"removeOwner","inputs":[{"name":"owner","type":"address","internalType":"address"}],"outputs":[],"stateMutability":"nonpayable"},{"type":"function","name":"splitSignature","inputs":[{"name":"sig","type":"bytes","internalType":"bytes"}],"outputs":[{"name":"v","type":"uint8","internalType":"uint8"},{"name":"r","type":"bytes32","internalType":"bytes32"},{"name":"s","type":"bytes32","internalType":"bytes32"}],"stateMutability":"pure"},{"type":"function","name":"threshold","inputs":[],"outputs":[{"name":"","type":"uint256","internalType":"uint256"}],"stateMutability":"view"},{"type":"event","name":"Cancelled","inputs":[{"name":"proposalId","type":"uint256","indexed":true,"internalType":"uint256"},{"name":"canceller","type":"address","indexed":true,"internalType":"address"}],"anonymous":false},{"type":"event","name":"Confirmed","inputs":[{"name":"proposalId","type":"uint256","indexed":true,"internalType":"uint256"},{"name":"confirmer","type":"address","indexed":true,"internalType":"address"}],"anonymous":false},{"type":"event","name":"Executed","inputs":[{"name":"proposalId","type":"uint256","indexed":true,"internalType":"uint256"},{"name":"executor","type":"address","indexed":true,"internalType":"address"},{"name":"success","type":"bool","indexed":false,"internalType":"bool"},{"name":"result","type":"bytes","indexed":false,"internalType":"bytes"}],"anonymous":false},{"type":"event","name":"OwnerAdded","inputs":[{"name":"newOwner","type":"address","indexed":true,"internalType":"address"}],"anonymous":false},{"type":"event","name":"OwnerRemoved","inputs":[{"name":"removedOwner","type":"address","indexed":true,"internalType":"address"}],"anonymous":false},{"type":"event","name":"ProposalCreated","inputs":[{"name":"proposalId","type":"uint256","indexed":true,"internalType":"uint256"},{"name":"proposer","type":"address","indexed":true,"internalType":"address"},{"name":"to","type":"address","indexed":true,"internalType":"address"},{"name":"value","type":"uint256","indexed":false,"internalType":"uint256"}],"anonymous":false},{"type":"event","name":"ThresholdChanged","inputs":[{"name":"newThreshold","type":"uint256","indexed":false,"internalType":"uint256"}],"anonymous":false}],"bytecode":{"object":"0x60806040526118588038038061001481610205565b92833981016040828203126102015781516001600160401b0381116102015782019181601f84011215610201578251926001600160401b03841161017f578360051b926020610064818601610205565b8096815201916020839582010191821161020157602001915b8183106101e15750505060200151918281511015806101d8575b15610193575f5b81518110156100d557600190818060a01b0360208260051b85010151165f528160205260405f208260ff198254161790550161009e565b5051906001600160401b03821161017f5768010000000000000000821161017f575f54825f5580831061014f575b505f8080525f5160206118385f395f51905f52905b838110610132578460025560405161160d908161022b8239f35b82516001600160a01b031681830155602090920191600101610118565b5f80525f5160206118385f395f51905f529081019083015b8181106101745750610103565b5f8155600101610167565b634e487b7160e01b5f52604160045260245ffd5b60405162461bcd60e51b815260206004820152601860248201527f696e76616c6964206f776e6572732f7468726573686f6c6400000000000000006044820152606490fd5b50821515610097565b82516001600160a01b03811681036102015781526020928301920161007d565b5f80fd5b6040519190601f01601f191682016001600160401b0381118382101761017f5760405256fe6080604052600436101561001a575b3615610018575f80fd5b005b5f3560e01c8062a0d28f14610178578063013cf08b14610173578063025e7c271461016e578063173825d9146101695780632f54bf6e146101645780633380c0d81461015f57806342cde4e81461015a578063592536aa146101555780635e90852d14610150578063623915201461014b578063694e80c3146101465780636fa6ae78146101415780636ff1c9bc1461013c5780637065cb4814610137578063a0e67e2b14610132578063a7bb58031461012d578063ab585e6a14610128578063c01a8c8414610123578063c7f758a81461011e578063d714b61214610119578063da35c664146101145763ee22610b0361000e576110e4565b6110c7565b610f14565b610ea9565b610df7565b610d91565b610d20565b610c48565b610b5c565b610ae0565b610abe565b610a27565b6109ac565b6108c2565b610721565b610704565b61060d565b6105cd565b6104a0565b610437565b610398565b6101df565b9181601f840112156101ad578235916001600160401b0383116101ad576020808501948460051b0101116101ad57565b5f80fd5b60206003198201126101ad57600435906001600160401b0382116101ad576101db9160040161017d565b9091565b346101ad576101ed366101b1565b905f5b8281106101f957005b8061021061020a6001938686611100565b3561152e565b016101f0565b90600182811c92168015610244575b602083101461023057565b634e487b7160e01b5f52602260045260245ffd5b91607f1691610225565b634e487b7160e01b5f52604160045260245ffd5b90601f801991011681019081106001600160401b0382111761028357604052565b61024e565b9060405191825f82549261029b84610216565b808452936001811690811561030657506001146102c2575b506102c092500383610262565b565b90505f9291925260205f20905f915b8183106102ea5750509060206102c0928201015f6102b3565b60209193508060019154838589010152019101909184926102d1565b9050602092506102c094915060ff191682840152151560051b8201015f6102b3565b805180835260209291819084018484015e5f828201840152601f01601f1916010190565b9390926103879260c0969998979460018060a01b0316865260018060a01b03166020860152604085015260e0606085015260e0840190610328565b956080830152151560a08201520152565b346101ad5760203660031901126101ad576004355f52600460205260405f2060018060a01b0381541661040460018060a01b03600184015416926002810154906103e460038201610288565b600482015490600660ff600585015416930154936040519788978861034c565b0390f35b634e487b7160e01b5f52603260045260245ffd5b5f54811015610432575f805260205f2001905f90565b610408565b346101ad5760203660031901126101ad576004355f548110156101ad575f80527f290decd9548b62a8d60345a988386fc84ba6bc95484008f6362f93160ef3e56301546040516001600160a01b039091168152602090f35b6001600160a01b038116036101ad57565b346101ad5760203660031901126101ad576004356104bd8161048f565b6001600160a01b0381165f8181526001602052604090205490919060ff166104e157005b6001600160a01b03165f908152600160205260408120805460ff191690555b5f5490818110156105c6578261052f6105188361041c565b90546001600160a01b039260039290921b1c821690565b161461053f576001915001610500565b61057461056e61055961055461059895611124565b61041c565b905460039190911b1c6001600160a01b031690565b9161041c565b81546001600160a01b0393841660039290921b91821b9390911b1916919091179055565b6105a0611132565b7f58619076adf5bb0943d100ef88d52d7c3fd691b19d3a9071b555b651fbf418da5f80a2005b50506105a0565b346101ad5760203660031901126101ad576004356105ea8161048f565b60018060a01b03165f526001602052602060ff60405f2054166040519015158152f35b346101ad5760203660031901126101ad57600435805f52600460205261063d60ff600560405f2001541615611195565b805f5260046020525f600660408220828155826001820155826002820155600381016106698154610216565b90816106a8575b5050826004820155826005820155015533907f26deca31ff8139a06c52453ce8985d34f7648a6d9af1d283c4063d052c355a0f5f80a3005b601f82116001146106bf57849055505b5f80610670565b6106e56106f5926001601f6106d7855f5260205f2090565b920160051c820191016111d4565b5f81815260208120918190559055565b6106b8565b5f9103126101ad57565b346101ad575f3660031901126101ad576020600254604051908152f35b346101ad5760603660031901126101ad576004356001600160401b0381116101ad5761075190369060040161017d565b906024356001600160401b0381116101ad5761077190369060040161017d565b9190926044356001600160401b0381116101ad5761079390369060040161017d565b94909184811480610851575b6107a8906111ea565b5f5b8181106107b357005b8060206107cc6107c761080294868a611100565b611228565b6107d7838a88611100565b35906107e4848c8a611235565b604051635e90852d60e01b8152968794859491939160048601611285565b03815f305af191821561084c5760019261081e575b50016107aa565b61083e9060203d8111610845575b6108368183610262565b810190611276565b505f610817565b503d61082c565b6112bf565b5080861461079f565b9181601f840112156101ad578235916001600160401b0383116101ad57602083818601950101116101ad57565b60606003198201126101ad5760043561089f8161048f565b9160243591604435906001600160401b0382116101ad576101db9160040161085a565b346101ad576108d036610887565b60035493909290915f1985146109a75760019490940160038190555f81815260046020526040902080546001600160a01b03191633178155610404959194909161094191906001840180546001600160a01b0319166001600160a01b0388161790558460028501556003840161130d565b5f600482015560058101805460ff19169055426006909101556040519081526001600160a01b039190911690339083907f6d4365eeea2290a1fb5155f6f527bb01f4a2797dea12f20abc314effacafd20290602090a46040519081529081906020820190565b611110565b346101ad576109ba366101b1565b5f5b8181106109c557005b6109d0818385611100565b3590303b156101ad57604051633006a32160e21b815260048101929092525f8260248183305af191821561084c57600192610a0d575b50016109bc565b80610a1b5f610a2193610262565b806106fa565b5f610a06565b346101ad5760203660031901126101ad5760043580151580610ab3575b15610a7a576020817f6c4ce60fd690e1216286a10b875c5662555f10774484e58142cedd7a90781baa92600255604051908152a1005b60405162461bcd60e51b81526020600482015260116024820152701a5b9d985b1a59081d1a1c995cda1bdb19607a1b6044820152606490fd5b505f54811115610a44565b346101ad5760403660031901126101ad57602060043560243560405191018152f35b346101ad5760203660031901126101ad57600435610afd8161048f565b4215610b2f575f80808093479082908215610b25575b6001600160a01b031690f11561084c57005b6108fc9150610b13565b60405162461bcd60e51b81526020600482015260056024820152643732bb32b960d91b6044820152606490fd5b346101ad5760203660031901126101ad57600435610b798161048f565b6001600160a01b0381165f8181526001602052604090205490919060ff1615610b9e57005b5f54906801000000000000000082101561028357610574826001610bc494015f5561041c565b805f526001602052610be060405f20600160ff19825416179055565b7f994a936646fe87ffe4f1e469d3d6aa417d6b855598397f323de5b449f765f0c35f80a2005b60206040818301928281528451809452019201905f5b818110610c295750505090565b82516001600160a01b0316845260209384019390920191600101610c1c565b346101ad575f3660031901126101ad576040518060205f549182815201905f80527f290decd9548b62a8d60345a988386fc84ba6bc95484008f6362f93160ef3e563905f5b818110610cb05761040485610ca481870382610262565b60405191829182610c06565b82546001600160a01b0316845260209093019260019283019201610c8d565b6001600160401b03811161028357601f01601f191660200190565b929192610cf682610ccf565b91610d046040519384610262565b8294818452818301116101ad578281602093845f960137010152565b346101ad5760203660031901126101ad576004356001600160401b0381116101ad57366023820112156101ad57610d7b610d666060923690602481600401359101610cea565b602081015190606060408201519101515f1a92565b9060ff6040519316835260208301526040820152f35b346101ad576020610dec6054610da636610887565b8060409694969593929551958693898501986bffffffffffffffffffffffff199060601b16895260348501528484013781015f838201520301601f198101835282610262565b519020604051908152f35b346101ad5760203660031901126101ad57600435805f52600460205260405f20610e2860ff60058301541615611195565b335f90815260078201602081905260409091205490919060ff1615610e4957005b610e74610e676004933360018060a01b03165f5260205260405f2090565b805460ff19166001179055565b01610e7f81546113e2565b905533907f6f220d98c15dbd07fdc24781b682ea34f92411fc61b83c761dd927afbe02d3fd5f80a3005b346101ad5760203660031901126101ad576004355f52600460205260405f2060018060a01b0381541661040460018060a01b03600184015416926002810154600482015460ff60058401541691610f07600360068601549501610288565b906040519788978861034c565b346101ad5760803660031901126101ad57600435610f318161048f565b602435906044356001600160401b0381116101ad57610f5490369060040161085a565b6064929192356001600160401b0381116101ad575f61104e610d6661102a610f82602095369060040161085a565b929088610f90368a8d610cea565b888151910120610fde8d610fd06040519384928d8401968791605493916bffffffffffffffffffffffff199060601b168352601483015260348201520190565b03601f198101835282610262565b51902060405161101f81610fd08b82019485603c917f19457468657265756d205369676e6564204d6573736167653a0a3332000000008252601c8201520190565b519020933691610cea565b6040805194855260ff90931660208501529183015260608201529081906080820190565b838052039060015afa1561084c575f93849361107460018060a01b0386511615156113f0565b611083604051809481936113d5565b03925af15f7f40ad9bda067c2d6c5f31b3101e5f886043d36c6a6258478f17a2152af947a1966110c26110b4611430565b60405191829133968361145f565b0390a3005b346101ad575f3660031901126101ad576020600354604051908152f35b346101ad5760203660031901126101ad5761001860043561152e565b91908110156104325760051b0190565b634e487b7160e01b5f52601160045260245ffd5b5f198101919082116109a757565b5f548015611181575f198101905f54821015610432575f8080527f290decd9548b62a8d60345a988386fc84ba6bc95484008f6362f93160ef3e56290910180546001600160a01b031916905555565b634e487b7160e01b5f52603160045260245ffd5b1561119c57565b60405162461bcd60e51b815260206004820152601060248201526f185b1c9958591e48195e1958dd5d195960821b6044820152606490fd5b8181106111df575050565b5f81556001016111d4565b156111f157565b60405162461bcd60e51b815260206004820152600f60248201526e0d8cadccee8d040dad2e6dac2e8c6d608b1b6044820152606490fd5b356112328161048f565b90565b91908110156104325760051b81013590601e19813603018212156101ad5701908135916001600160401b0383116101ad5760200182360381136101ad579190565b908160209103126101ad575190565b9284926080959260018060a01b03168552602085015260606040850152816060850152848401375f828201840152601f01601f1916010190565b6040513d5f823e3d90fd5b9190601f81116112d957505050565b6102c0925f5260205f20906020601f840160051c83019310611303575b601f0160051c01906111d4565b90915081906112f6565b9092916001600160401b038111610283576113328161132c8454610216565b846112ca565b5f601f82116001146113705781906113619394955f92611365575b50508160011b915f199060031b1c19161790565b9055565b013590505f8061134d565b601f19821694611383845f5260205f2090565b915f5b8781106113bd5750836001959697106113a4575b505050811b019055565b01355f19600384901b60f8161c191690555f808061139a565b90926020600181928686013581550194019101611386565b908092918237015f815290565b90600182018092116109a757565b156113f757565b60405162461bcd60e51b8152602060048201526011602482015270696e76616c6964207369676e617475726560781b6044820152606490fd5b3d1561145a573d9061144182610ccf565b9161144f6040519384610262565b82523d5f602084013e565b606090565b6040906112329392151581528160208201520190610328565b1561147f57565b60405162461bcd60e51b815260206004820152601860248201527f6e6f7420656e6f75676820636f6e6669726d6174696f6e7300000000000000006044820152606490fd5b5f92918154916114d383610216565b926001811690811561151b57506001146114ec57505050565b90919293505f5260205f205f905b8382106115075750500190565b6001816020925484860152019101906114fa565b60ff191683525050811515909102019150565b6102c090805f52600460205260405f20905f80600584019361155c61155760ff87541615151590565b611195565b61156e60048201546002541115611478565b60018101546003906001600160a01b03169160028101549061159660405180948193016114c4565b03925af1907f40ad9bda067c2d6c5f31b3101e5f886043d36c6a6258478f17a2152af947a1966115c76110b4611430565b0390a3805460ff1916600117905556fea26469706673582212206b323176ab7da92f12233702a501b7ca361f3b693cd71c9908c6e04b88ff0bb364736f6c634300081e0033290decd9548b62a8d60345a988386fc84ba6bc95484008f6362f93160ef3e563","linkReferences":{}},"methodIdentifiers":{"addOwner(address)":"7065cb48","batchConfirm(uint256[])":"62391520","batchExecute(uint256[])":"00a0d28f","batchPropose(address[],uint256[],bytes[])":"592536aa","cancelTransaction(uint256)":"3380c0d8","changeThreshold(uint256)":"694e80c3","confirmTransaction(uint256)":"c01a8c84","dangerousAdd(uint256,uint256)":"6fa6ae78","emergencyWithdraw(address)":"6ff1c9bc","executeTransaction(uint256)":"ee22610b","executeWithSignature(address,uint256,bytes,bytes)":"d714b612","getOwners()":"a0e67e2b","getProposal(uint256)":"c7f758a8","isOwner(address)":"2f54bf6e","naiveHash(address,uint256,string)":"ab585e6a","owners(uint256)":"025e7c27","proposalCount()":"da35c664","proposals(uint256)":"013cf08b","proposeTransaction(address,uint256,bytes)":"5e90852d","removeOwner(address)":"173825d9","splitSignature(bytes)":"a7bb5803","threshold()":"42cde4e8"},"id":18}