{"abi":[{"type":"function","name":"deployAndImplode","inputs":[{"name":"destructionRecipient","type":"address","internalType":"address payable"}],"outputs":[{"name":"destroyedAddress","type":"address","internalType":"address"}],"stateMutability":"payable"}],"bytecode":{"object":"0x60808060405234601557610352908161001a8239f35b5f80fdfe60808060405260043610156011575f80fd5b5f3560e01c639051fe12146023575f80fd5b602036600319011260e1576004356001600160a01b038116919082900360e15761023780820182811067ffffffffffffffff82111760c25782916100e68339039034f0801560d6576001600160a01b0316803b1560e1576040519163b59786a560e01b835260048301525f8260248183855af1801560d65760aa575b602090604051908152f35b67ffffffffffffffff821160c257602091604052609f565b634e487b7160e01b5f52604160045260245ffd5b6040513d5f823e3d90fd5b5f80fdfe608060408190525f80546001600160a81b0319163360ff60a01b191617905561020c908161002b8239f3fe6080604052600436101561005d575b3615610018575f80fd5b60405162461bcd60e51b815260206004820152601960248201527f53494e4b484f4c455f4143544956415445445f524556455254000000000000006044820152606490fd5b5f3560e01c80630850564e146101475780638da5cb5b14610120578063b59786a5146100b55763cf3090120361000e57346100b1575f3660031901126100b157602060ff5f5460a01c166040519015158152f35b5f80fd5b346100b15760203660031901126100b1576004356001600160a01b0381168082036100b15760407f823c00587d2a84995a9a2485e62f0fa35d14fc579d718f508f3676cf0cfb6d609161011260018060a01b035f5416331461019e565b4782519182526020820152a1ff5b346100b1575f3660031901126100b1575f546040516001600160a01b039091168152602090f35b346100b1575f3660031901126100b15761016b60018060a01b035f5416331461019e565b7f823c00587d2a84995a9a2485e62f0fa35d14fc579d718f508f3676cf0cfb6d606040478151905f82526020820152a15fff5b156101a557565b60405162461bcd60e51b81526020600482015260096024820152683737ba1037bbb732b960b91b6044820152606490fdfea2646970667358221220519f6134464f3253ef9b5bb42f07afb460ffe2bf316c5a256b12225b5ba1381164736f6c634300081e0033a264697066735822122042a99aec772ce64765f25ff45147e0390e796e5d714b2f15aa78284282725da764736f6c634300081e0033","linkReferences":{}},"methodIdentifiers":{"deployAndImplode(address)":"9051fe12"},"id":19}