{"abi":[{"type":"constructor","inputs":[],"stateMutability":"payable"},{"type":"receive","stateMutability":"payable"},{"type":"function","name":"implode","inputs":[{"name":"to","type":"address","internalType":"address payable"}],"outputs":[],"stateMutability":"nonpayable"},{"type":"function","name":"implodeBurn","inputs":[],"outputs":[],"stateMutability":"nonpayable"},{"type":"function","name":"locked","inputs":[],"outputs":[{"name":"","type":"bool","internalType":"bool"}],"stateMutability":"view"},{"type":"function","name":"owner","inputs":[],"outputs":[{"name":"","type":"address","internalType":"address"}],"stateMutability":"view"},{"type":"event","name":"Killed","inputs":[{"name":"to","type":"address","indexed":false,"internalType":"address"},{"name":"amount","type":"uint256","indexed":false,"internalType":"uint256"}],"anonymous":false},{"type":"event","name":"Locked","inputs":[{"name":"sender","type":"address","indexed":false,"internalType":"address"},{"name":"amount","type":"uint256","indexed":false,"internalType":"uint256"}],"anonymous":false}],"bytecode":{"object":"0x608060408190525f80546001600160a81b0319163360ff60a01b191617905561020c908161002b8239f3fe6080604052600436101561005d575b3615610018575f80fd5b5f805460ff60a01b1916600160a01b179055604080513381523460208201527f9f1ec8c880f76798e7b793325d625e9b60e4082a553c98f42b6cda368dd600089190a1005b5f3560e01c80630850564e146101475780638da5cb5b14610120578063b59786a5146100b55763cf3090120361000e57346100b1575f3660031901126100b157602060ff5f5460a01c166040519015158152f35b5f80fd5b346100b15760203660031901126100b1576004356001600160a01b0381168082036100b15760407f823c00587d2a84995a9a2485e62f0fa35d14fc579d718f508f3676cf0cfb6d609161011260018060a01b035f5416331461019e565b4782519182526020820152a1ff5b346100b1575f3660031901126100b1575f546040516001600160a01b039091168152602090f35b346100b1575f3660031901126100b15761016b60018060a01b035f5416331461019e565b7f823c00587d2a84995a9a2485e62f0fa35d14fc579d718f508f3676cf0cfb6d606040478151905f82526020820152a15fff5b156101a557565b60405162461bcd60e51b81526020600482015260096024820152683737ba1037bbb732b960b91b6044820152606490fdfea264697066735822122046e946d9f1ee0e4fd9262b6f8d524a5489667e9b0d97fcfc9477f792f01b855164736f6c634300081e0033","linkReferences":{}},"methodIdentifiers":{"implode(address)":"b59786a5","implodeBurn()":"0850564e","locked()":"cf309012","owner()":"8da5cb5b"},"id":1}