{"abi":[{"type":"constructor","inputs":[{"name":"_owners","type":"address[]","internalType":"address[]"},{"name":"_threshold","type":"uint256","internalType":"uint256"},{"name":"_timelockDuration","type":"uint256","internalType":"uint256"}],"stateMutability":"payable"},{"type":"receive","stateMutability":"payable"},{"type":"function","name":"DOMAIN_SEPARATOR","inputs":[],"outputs":[{"name":"","type":"bytes32","internalType":"bytes32"}],"stateMutability":"view"},{"type":"function","name":"EXECUTE_TYPEHASH","inputs":[],"outputs":[{"name":"","type":"bytes32","internalType":"bytes32"}],"stateMutability":"view"},{"type":"function","name":"MAX_BATCH","inputs":[],"outputs":[{"name":"","type":"uint256","internalType":"uint256"}],"stateMutability":"view"},{"type":"function","name":"batchExecute","inputs":[{"name":"ids","type":"uint256[]","internalType":"uint256[]"}],"outputs":[],"stateMutability":"nonpayable"},{"type":"function","name":"cancelTransaction","inputs":[{"name":"proposalId","type":"uint256","internalType":"uint256"}],"outputs":[],"stateMutability":"nonpayable"},{"type":"function","name":"confirmTransaction","inputs":[{"name":"proposalId","type":"uint256","internalType":"uint256"}],"outputs":[],"stateMutability":"nonpayable"},{"type":"function","name":"confirmations","inputs":[{"name":"","type":"uint256","internalType":"uint256"},{"name":"","type":"address","internalType":"address"}],"outputs":[{"name":"","type":"bool","internalType":"bool"}],"stateMutability":"view"},{"type":"function","name":"executeGovernance","inputs":[{"name":"proposalId","type":"uint256","internalType":"uint256"}],"outputs":[],"stateMutability":"nonpayable"},{"type":"function","name":"executeTransaction","inputs":[{"name":"proposalId","type":"uint256","internalType":"uint256"}],"outputs":[],"stateMutability":"nonpayable"},{"type":"function","name":"executeWithSignature","inputs":[{"name":"to","type":"address","internalType":"address"},{"name":"value","type":"uint256","internalType":"uint256"},{"name":"data","type":"bytes","internalType":"bytes"},{"name":"nonce","type":"uint256","internalType":"uint256"},{"name":"signature","type":"bytes","internalType":"bytes"}],"outputs":[{"name":"","type":"bool","internalType":"bool"}],"stateMutability":"nonpayable"},{"type":"function","name":"getOwners","inputs":[],"outputs":[{"name":"","type":"address[]","internalType":"address[]"}],"stateMutability":"view"},{"type":"function","name":"getProposal","inputs":[{"name":"proposalId","type":"uint256","internalType":"uint256"}],"outputs":[{"name":"proposer","type":"address","internalType":"address"},{"name":"to","type":"address","internalType":"address"},{"name":"value","type":"uint256","internalType":"uint256"},{"name":"dataHash","type":"bytes32","internalType":"bytes32"},{"name":"confirmations_","type":"uint256","internalType":"uint256"},{"name":"executed","type":"bool","internalType":"bool"},{"name":"createdAt","type":"uint256","internalType":"uint256"},{"name":"executeAfter","type":"uint256","internalType":"uint256"}],"stateMutability":"view"},{"type":"function","name":"isOwner","inputs":[{"name":"","type":"address","internalType":"address"}],"outputs":[{"name":"","type":"bool","internalType":"bool"}],"stateMutability":"view"},{"type":"function","name":"nonces","inputs":[{"name":"","type":"address","internalType":"address"}],"outputs":[{"name":"","type":"uint256","internalType":"uint256"}],"stateMutability":"view"},{"type":"function","name":"proposalCount","inputs":[],"outputs":[{"name":"","type":"uint256","internalType":"uint256"}],"stateMutability":"view"},{"type":"function","name":"proposals","inputs":[{"name":"","type":"uint256","internalType":"uint256"}],"outputs":[{"name":"proposer","type":"address","internalType":"address"},{"name":"to","type":"address","internalType":"address"},{"name":"value","type":"uint256","internalType":"uint256"},{"name":"dataHash","type":"bytes32","internalType":"bytes32"},{"name":"confirmations","type":"uint256","internalType":"uint256"},{"name":"executed","type":"bool","internalType":"bool"},{"name":"createdAt","type":"uint256","internalType":"uint256"},{"name":"executeAfter","type":"uint256","internalType":"uint256"}],"stateMutability":"view"},{"type":"function","name":"proposeAddOwner","inputs":[{"name":"newOwner","type":"address","internalType":"address"}],"outputs":[{"name":"","type":"uint256","internalType":"uint256"}],"stateMutability":"nonpayable"},{"type":"function","name":"proposeChangeThreshold","inputs":[{"name":"newThreshold","type":"uint256","internalType":"uint256"}],"outputs":[{"name":"","type":"uint256","internalType":"uint256"}],"stateMutability":"nonpayable"},{"type":"function","name":"proposeRemoveOwner","inputs":[{"name":"owner","type":"address","internalType":"address"}],"outputs":[{"name":"","type":"uint256","internalType":"uint256"}],"stateMutability":"nonpayable"},{"type":"function","name":"proposeTransaction","inputs":[{"name":"to","type":"address","internalType":"address"},{"name":"value","type":"uint256","internalType":"uint256"},{"name":"data","type":"bytes","internalType":"bytes"}],"outputs":[{"name":"","type":"uint256","internalType":"uint256"}],"stateMutability":"nonpayable"},{"type":"function","name":"threshold","inputs":[],"outputs":[{"name":"","type":"uint256","internalType":"uint256"}],"stateMutability":"view"},{"type":"function","name":"timelockDuration","inputs":[],"outputs":[{"name":"","type":"uint256","internalType":"uint256"}],"stateMutability":"view"},{"type":"function","name":"version","inputs":[],"outputs":[{"name":"","type":"uint256","internalType":"uint256"}],"stateMutability":"pure"},{"type":"function","name":"withdrawDeferred","inputs":[],"outputs":[],"stateMutability":"nonpayable"},{"type":"event","name":"Cancelled","inputs":[{"name":"proposalId","type":"uint256","indexed":true,"internalType":"uint256"},{"name":"canceller","type":"address","indexed":true,"internalType":"address"}],"anonymous":false},{"type":"event","name":"Confirmed","inputs":[{"name":"proposalId","type":"uint256","indexed":true,"internalType":"uint256"},{"name":"confirmer","type":"address","indexed":true,"internalType":"address"}],"anonymous":false},{"type":"event","name":"Deposit","inputs":[{"name":"from","type":"address","indexed":true,"internalType":"address"},{"name":"amount","type":"uint256","indexed":false,"internalType":"uint256"}],"anonymous":false},{"type":"event","name":"Executed","inputs":[{"name":"proposalId","type":"uint256","indexed":true,"internalType":"uint256"},{"name":"executor","type":"address","indexed":true,"internalType":"address"},{"name":"success","type":"bool","indexed":false,"internalType":"bool"},{"name":"result","type":"bytes","indexed":false,"internalType":"bytes"}],"anonymous":false},{"type":"event","name":"NonceIncremented","inputs":[{"name":"owner","type":"address","indexed":true,"internalType":"address"},{"name":"newNonce","type":"uint256","indexed":false,"internalType":"uint256"}],"anonymous":false},{"type":"event","name":"OwnerAdded","inputs":[{"name":"newOwner","type":"address","indexed":true,"internalType":"address"}],"anonymous":false},{"type":"event","name":"OwnerRemoved","inputs":[{"name":"removedOwner","type":"address","indexed":true,"internalType":"address"}],"anonymous":false},{"type":"event","name":"ProposalCreated","inputs":[{"name":"proposalId","type":"uint256","indexed":true,"internalType":"uint256"},{"name":"proposer","type":"address","indexed":true,"internalType":"address"},{"name":"to","type":"address","indexed":true,"internalType":"address"},{"name":"value","type":"uint256","indexed":false,"internalType":"uint256"},{"name":"dataHash","type":"bytes32","indexed":false,"internalType":"bytes32"}],"anonymous":false},{"type":"event","name":"PullPayment","inputs":[{"name":"to","type":"address","indexed":true,"internalType":"address"},{"name":"amount","type":"uint256","indexed":false,"internalType":"uint256"}],"anonymous":false},{"type":"event","name":"ThresholdChanged","inputs":[{"name":"newThreshold","type":"uint256","indexed":false,"internalType":"uint256"}],"anonymous":false}],"bytecode":{"object":"0x608080604052611d2c80380380916100178285610343565b8339810160608282031261033f5781516001600160401b03811161033f57820181601f8201121561033f578051916001600160401b03831161016c578260051b91604051936100696020850186610343565b845260208085019382010191821161033f57602001915b81831061031f5750505060406020830151920151828251101580610316575b156102d1575f5b82518110156101e957600581901b8301602001516001600160a01b03169081156101b757815f525f60205260ff60405f20541661018057815f525f60205260405f20600160ff19825416179055600154916801000000000000000083101561016c5760018301806001558310156101585760015f8190527fb10e2d527612073b26eecdfd717e6a320cf44b4afac2b0732d9fcbe2b7fa0cf690930180546001600160a01b0319169091179055016100a6565b634e487b7160e01b5f52603260045260245ffd5b634e487b7160e01b5f52604160045260245ffd5b60405162461bcd60e51b815260206004820152600f60248201526e323ab83634b1b0ba329037bbb732b960891b6044820152606490fd5b60405162461bcd60e51b815260206004820152600a6024820152693d32b9379037bbb732b960b11b6044820152606490fd5b50826002556008556040516101ff604082610343565b600e81526d5365637572654d756c746953696760901b602090910152604080517ff110420378b190cc929487f570d1514bdc8e45616916476a1a491a6f5330be629161024b9082610343565b600181526020810190603160f81b82525190206040519060208201927f8b73c3c69bb8fe3d512ecc4cf759cc79239f7b179b0ffacaa9a75d522b39400f8452604083015260608201524660808201523060a082015260a081526102af60c082610343565b519020600755600160ff1960095416176009556040516119c590816103678239f35b60405162461bcd60e51b815260206004820152601860248201527f696e76616c6964206f776e6572732f7468726573686f6c6400000000000000006044820152606490fd5b5082151561009f565b82516001600160a01b038116810361033f57815260209283019201610080565b5f80fd5b601f909101601f19168101906001600160401b0382119082101761016c5760405256fe60806040526004361015610022575b3615610018575f80fd5b6100206118e9565b005b5f3560e01c8062a0d28f1461019b578063013cf08b1461013c5780630993d763146101965780632bbca157146101915780632f54bf6e1461018c5780633380c0d8146101875780633411c81c146101825780633644e5151461017d5780633cdf67831461017857806342cde4e81461017357806348cd10c61461016e57806354fd4d50146101695780635e90852d1461016457806360d2f33d1461015f5780637ecebe001461015a57806383aa4f6214610155578063950bff9f146101505780639c23fa611461014b578063a0e67e2b14610146578063c01a8c8414610141578063c7f758a81461013c578063d966403a14610137578063da35c664146101325763ee22610b0361000e57610fdc565b610fbf565b610f23565b6101fc565b610e3b565b610db2565b610cde565b610cc4565b610ba3565b610b6b565b610b31565b610a14565b6109f9565b6108b0565b610893565b610814565b6107f7565b61079f565b610621565b6105e5565b6105c8565b6102d9565b346101f85760203660031901126101f85760043567ffffffffffffffff81116101f857366023820112156101f857806004013567ffffffffffffffff81116101f8573660248260051b840101116101f85760246100209201611136565b5f80fd5b346101f85760203660031901126101f8576004355f908152600460208181526040928390208054600182015460028301546003840154958401546005850154600686015460079096015489516001600160a01b0396871681529590941696850196909652968301526060820194909452608081019490945260ff909116151560a084015260c083015260e08201528061010081015b0390f35b600435906001600160a01b03821682036101f857565b9181601f840112156101f85782359167ffffffffffffffff83116101f857602083818601950101116101f857565b346101f85760a03660031901126101f8576102f2610295565b60243560443567ffffffffffffffff81116101f8576103159036906004016102ab565b926064359060843567ffffffffffffffff81116101f8575f6104658561044161043c8a8a886103fe8b6103f061037a61035460209d36906004016102ab565b9a9097600260095461036b8260ff831614156111bd565b60ff191617600955369161125e565b8c8151910120946040519485938e850197309346938a94919260c0949197969360e08701987fa07b94c19c1ed6a18de1a560d17067f10cd5f1a3e607c16aab70cd5629f66999885260018060a01b0316602088015260408701526060860152608085015260a084015260018060a01b0316910152565b03601f198101835282611209565b51902060075460405161190160f01b8a8201908152600281019290925260228201929092529061043181604284016103f0565b51902093369161125e565b611917565b6040805194855260ff90931660208501529183015260608201529081906080820190565b838052039060015afa156105c35761029194610508945f9485947fa82a649bbd060c9099cd7b7326e2b0dc9e9af0836480e0f849dc9eaa79710b3b610555610544885160018060a01b0381169b8c956104bf87151561129f565b6104ea6104e56104de8560018060a01b03165f525f60205260405f2090565b5460ff1690565b6112df565b6001600160a01b0383165f908152600660205260409020541461131e565b6001600160a01b0381165f908152600660205260409020610529815461136e565b90556001600160a01b03165f90815260066020526040902090565b546040519081529081906020820190565b0390a261056760405180948193611381565b03925af1905f5f5160206119705f395f51905f5261059c6105866113a2565b61058f866113d1565b604051918291878361143d565b0390a36105b1600160ff196009541617600955565b60405190151581529081906020820190565b611294565b346101f8575f3660031901126101f8576020600854604051908152f35b346101f85760203660031901126101f8576001600160a01b03610606610295565b165f525f602052602060ff60405f2054166040519015158152f35b346101f85760203660031901126101f857600435335f525f60205261064c60ff60405f205416611471565b6106a461069d610691610667845f52600460205260405f2090565b61068461067f61067b600584015460ff1690565b1590565b6114a9565b546001600160a01b031690565b6001600160a01b031690565b33146114e8565b6106e86106b9825f52600460205260405f2090565b60075f918281558260018201558260028201558260038201558260048201558260058201558260068201550155565b5f5b600154811015610776576001906107446104de61070f855f52600560205260405f2090565b61073061071b85611534565b905460039190911b1c6001600160a01b031690565b60018060a01b03165f5260205260405f2090565b61074f575b016106ea565b61077161076761070f855f52600560205260405f2090565b805460ff19169055565b610749565b5033907f26deca31ff8139a06c52453ce8985d34f7648a6d9af1d283c4063d052c355a0f5f80a3005b346101f85760403660031901126101f8576004356024356001600160a01b03811681036101f8575f9182526005602090815260408084206001600160a01b039093168452918152912060ff9054166040519015158152f35b346101f8575f3660031901126101f8576020600754604051908152f35b346101f8575f3660031901126101f857335f52600a60205260405f2054801561086357335f908152600a6020526040812061002092829182918291829055335af161085d6113a2565b5061154c565b60405162461bcd60e51b81526020600482015260086024820152676e6f2066756e647360c01b6044820152606490fd5b346101f8575f3660031901126101f8576020600254604051908152f35b346101f85760203660031901126101f8576102916108cc610295565b335f525f6020526108e360ff60405f205416611471565b6108f76001600160a01b038216151561158a565b61090260035461136e565b9061090c82600355565b6040516730b23227bbb732b960c11b6020820190815260609290921b6bffffffffffffffffffffffff1916602882015261094981603c81016103f0565b5190206109a761095b600854426115d3565b610963611230565b338152903060208301525f60408301528360608301525f60808301525f60a08301524260c083015260e08201526109a2845f52600460205260405f2090565b6115e0565b60405190827f6e6d98e9eb4242c1cb7cf89192befbe514b465224d811b9e43447b595ce8b6ff3093806109e63395829190602060408401935f81520152565b0390a46040519081529081906020820190565b346101f8575f3660031901126101f857602060405160018152f35b346101f85760603660031901126101f857610a2d610295565b6024356044359167ffffffffffffffff83116101f857610a546102919336906004016102ab565b929092335f525f602052610a6e60ff60405f205416611471565b7f6e6d98e9eb4242c1cb7cf89192befbe514b465224d811b9e43447b595ce8b6ff6109e6610ab3610aa060035461136e565b968794610aac86600355565b369161125e565b6020815191012094610b0e610ac6611230565b3381526001600160a01b03831660208201528660408201528760608201525f60808201525f60a08201524260c08201525f60e08201526109a2865f52600460205260405f2090565b6040805195865260208601969096526001600160a01b0316943394918291820190565b346101f8575f3660031901126101f85760206040517fa07b94c19c1ed6a18de1a560d17067f10cd5f1a3e607c16aab70cd5629f669998152f35b346101f85760203660031901126101f8576001600160a01b03610b8c610295565b165f526006602052602060405f2054604051908152f35b346101f85760203660031901126101f857610c846004356002600954610bce8260ff831614156111bd565b60ff191617600955335f525f602052610bed60ff60405f205416611471565b610c92610c02825f52600460205260405f2090565b610c7160036005830192610c1d61067f61067b865460ff1690565b6001810154610c3f906001600160a01b03166001600160a01b0316301461167d565b610c51600482015460025411156116c9565b610c616007820154421015611715565b0154825460ff1916600117909255565b6040519384916020830160209181520190565b03601f198101845283611209565b5f5160206119705f395f51905f5260405180610caf33958261140b565b0390a3610020600160ff196009541617600955565b346101f8575f3660031901126101f8576020604051818152f35b346101f85760203660031901126101f857610291600435335f525f602052610d0c60ff60405f205416611471565b80151580610d64575b610d1e90611757565b610d2960035461136e565b90610d3382600355565b604051610949816103f0602082019485602f916e18da185b99d9551a1c995cda1bdb19608a1b8252600f8201520190565b50600154811115610d15565b60206040818301928281528451809452019201905f5b818110610d935750505090565b82516001600160a01b0316845260209384019390920191600101610d86565b346101f8575f3660031901126101f85760405180602060015491828152019060015f527fb10e2d527612073b26eecdfd717e6a320cf44b4afac2b0732d9fcbe2b7fa0cf6905f5b818110610e1c5761029185610e1081870382611209565b60405191829182610d70565b82546001600160a01b0316845260209093019260019283019201610df9565b346101f85760203660031901126101f857600435335f525f602052610e6660ff60405f205416611471565b805f526004602052600460405f20610e8560ff600583015416156114a9565b5f8381526005602090815260408083203384529091529020610eb390610eae9061067b906104de565b611797565b610eee610ee133610ecc865f52600560205260405f2090565b9060018060a01b03165f5260205260405f2090565b805460ff19166001179055565b01610ef981546115c5565b905533907f6f220d98c15dbd07fdc24781b682ea34f92411fc61b83c761dd927afbe02d3fd5f80a3005b346101f85760203660031901126101f857610291610f3f610295565b335f525f602052610f5660ff60405f205416611471565b610f6a6001600160a01b038216151561158a565b610f7560035461136e565b90610f7f82600355565b6040516a3932b6b7bb32a7bbb732b960a91b6020820190815260609290921b6bffffffffffffffffffffffff1916602b82015261094981603f81016103f0565b346101f8575f3660031901126101f8576020600354604051908152f35b346101f85760203660031901126101f85760043560026009546110048260ff831614156111bd565b60ff191617600955335f525f60205261102360ff60405f205416611471565b5f80611037835f52600460205260405f2090565b61106d6005820161104f61067f61067b835460ff1690565b600783015480611110575b50610ee1600484015460025411156116c9565b60018101546001600160a01b0316907fc5d2460186f7233c927e7db2dcc703c0e500b653ca82273b7bfad8045d85a47060036002830154920154148314611102576110b661138e565b905b6040516110cd816103f06020820180966118d7565b51925af1905f5160206119705f395f51905f52610caf6110eb6113a2565b6110f4856113d1565b60405191829133968361143d565b61110a61138e565b906110b8565b61111c90421015611715565b5f61105a565b634e487b7160e01b5f52603260045260245ffd5b90801515806111b2575b15611178575f5b81811061115357505050565b81811015611173578061116d60019260051b8501356117d7565b01611147565b611122565b60405162461bcd60e51b815260206004820152601260248201527118985d18da081cda5e99481a5b9d985b1a5960721b6044820152606490fd5b506020811115611140565b156111c457565b60405162461bcd60e51b81526020600482015260096024820152681c99595b9d1c985b9d60ba1b6044820152606490fd5b634e487b7160e01b5f52604160045260245ffd5b90601f8019910116810190811067ffffffffffffffff82111761122b57604052565b6111f5565b6040519061124061010083611209565b565b67ffffffffffffffff811161122b57601f01601f191660200190565b92919261126a82611242565b916112786040519384611209565b8294818452818301116101f8578281602093845f960137010152565b6040513d5f823e3d90fd5b156112a657565b60405162461bcd60e51b8152602060048201526011602482015270696e76616c6964207369676e617475726560781b6044820152606490fd5b156112e657565b60405162461bcd60e51b815260206004820152601060248201526f39b4b3b732b9103737ba1037bbb732b960811b6044820152606490fd5b1561132557565b60405162461bcd60e51b815260206004820152600d60248201526c696e76616c6964206e6f6e636560981b6044820152606490fd5b634e487b7160e01b5f52601160045260245ffd5b5f19811461137c5760010190565b61135a565b908092918237015f815290565b6040519061139d602083611209565b5f8252565b3d156113cc573d906113b382611242565b916113c16040519384611209565b82523d5f602084013e565b606090565b156113d857565b60405162461bcd60e51b815260206004820152600b60248201526a18d85b1b0819985a5b195960aa1b6044820152606490fd5b6020606092600183526040828401528051918291826040860152018484015e5f828201840152601f01601f1916010190565b90606092602091151583526040828401528051918291826040860152018484015e5f828201840152601f01601f1916010190565b1561147857565b60405162461bcd60e51b81526020600482015260096024820152683737ba1037bbb732b960b91b6044820152606490fd5b156114b057565b60405162461bcd60e51b815260206004820152601060248201526f185b1c9958591e48195e1958dd5d195960821b6044820152606490fd5b156114ef57565b60405162461bcd60e51b815260206004820152601860248201527f6f6e6c792070726f706f736572206d61792063616e63656c00000000000000006044820152606490fd5b6001548110156111735760015f5260205f2001905f90565b1561155357565b60405162461bcd60e51b815260206004820152600f60248201526e1dda5d1a191c985dc819985a5b1959608a1b6044820152606490fd5b1561159157565b60405162461bcd60e51b815260206004820152600c60248201526b7a65726f206164647265737360a01b6044820152606490fd5b906001820180921161137c57565b9190820180921161137c57565b815181546001600160a01b0319166001600160a01b039091161781559060079060e09060208101516001850180546001600160a01b0319166001600160a01b0390921691909117905560408101516002850155606081015160038501556080810151600485015561166c61165760a0830151151590565b600586019060ff801983541691151516179055565b60c081015160068501550151910155565b1561168457565b60405162461bcd60e51b815260206004820152601760248201527f6e6f7420676f7665726e616e63652070726f706f73616c0000000000000000006044820152606490fd5b156116d057565b60405162461bcd60e51b815260206004820152601860248201527f6e6f7420656e6f75676820636f6e6669726d6174696f6e7300000000000000006044820152606490fd5b1561171c57565b60405162461bcd60e51b81526020600482015260136024820152721d1a5b595b1bd8dac81b9bdd081c185cdcd959606a1b6044820152606490fd5b1561175e57565b60405162461bcd60e51b81526020600482015260116024820152701a5b9d985b1a59081d1a1c995cda1bdb19607a1b6044820152606490fd5b1561179e57565b60405162461bcd60e51b8152602060048201526011602482015270185b1c9958591e4818dbdb999a5c9b5959607a1b6044820152606490fd5b60026009546117eb8260ff831614156111bd565b60ff191617600955335f525f60205261180a60ff60405f205416611471565b5f8061181e835f52600460205260405f2090565b6118366005820161104f61067f61067b835460ff1690565b60018101546001600160a01b0316907fc5d2460186f7233c927e7db2dcc703c0e500b653ca82273b7bfad8045d85a470600360028301549201541483146118c95761187f61138e565b905b604051611896816103f06020820180966118d7565b51925af1905f5160206119705f395f51905f526118b46110eb6113a2565b0390a3611240600160ff196009541617600955565b6118d161138e565b90611881565b805191908290602001825e015f815290565b6040513481527fe1fffcc4923d04b559f4d29a8bfc6cda04eb5b0d3c460751c2402c5c5cc9109c60203392a2565b604181510361193557602081015190606060408201519101515f1a92565b60405162461bcd60e51b81526020600482015260126024820152710d2dcecc2d8d2c840e6d2ce40d8cadccee8d60731b6044820152606490fdfe40ad9bda067c2d6c5f31b3101e5f886043d36c6a6258478f17a2152af947a196a26469706673582212204d590486f7eb612adaff884dcc2bc8d406cbd9988fe7ec537a3c9195376f545664736f6c634300081e0033","linkReferences":{}},"methodIdentifiers":{"DOMAIN_SEPARATOR()":"3644e515","EXECUTE_TYPEHASH()":"60d2f33d","MAX_BATCH()":"950bff9f","batchExecute(uint256[])":"00a0d28f","cancelTransaction(uint256)":"3380c0d8","confirmTransaction(uint256)":"c01a8c84","confirmations(uint256,address)":"3411c81c","executeGovernance(uint256)":"83aa4f62","executeTransaction(uint256)":"ee22610b","executeWithSignature(address,uint256,bytes,uint256,bytes)":"0993d763","getOwners()":"a0e67e2b","getProposal(uint256)":"c7f758a8","isOwner(address)":"2f54bf6e","nonces(address)":"7ecebe00","proposalCount()":"da35c664","proposals(uint256)":"013cf08b","proposeAddOwner(address)":"48cd10c6","proposeChangeThreshold(uint256)":"9c23fa61","proposeRemoveOwner(address)":"d966403a","proposeTransaction(address,uint256,bytes)":"5e90852d","threshold()":"42cde4e8","timelockDuration()":"2bbca157","version()":"54fd4d50","withdrawDeferred()":"3cdf6783"},"id":17}