{"abi":[{"type":"constructor","inputs":[{"name":"_owners","type":"address[]","internalType":"address[]"},{"name":"_threshold","type":"uint256","internalType":"uint256"},{"name":"_timelockDuration","type":"uint256","internalType":"uint256"}],"stateMutability":"payable"},{"type":"receive","stateMutability":"payable"},{"type":"function","name":"DOMAIN_SEPARATOR","inputs":[],"outputs":[{"name":"","type":"bytes32","internalType":"bytes32"}],"stateMutability":"view"},{"type":"function","name":"EXECUTE_TYPEHASH","inputs":[],"outputs":[{"name":"","type":"bytes32","internalType":"bytes32"}],"stateMutability":"view"},{"type":"function","name":"MAX_BATCH","inputs":[],"outputs":[{"name":"","type":"uint256","internalType":"uint256"}],"stateMutability":"view"},{"type":"function","name":"batchConfirm","inputs":[{"name":"ids","type":"uint256[]","internalType":"uint256[]"}],"outputs":[],"stateMutability":"nonpayable"},{"type":"function","name":"batchExecute","inputs":[{"name":"ids","type":"uint256[]","internalType":"uint256[]"}],"outputs":[],"stateMutability":"nonpayable"},{"type":"function","name":"batchPropose","inputs":[{"name":"tos","type":"address[]","internalType":"address[]"},{"name":"values","type":"uint256[]","internalType":"uint256[]"},{"name":"datas","type":"bytes[]","internalType":"bytes[]"}],"outputs":[],"stateMutability":"nonpayable"},{"type":"function","name":"cancelTransaction","inputs":[{"name":"proposalId","type":"uint256","internalType":"uint256"}],"outputs":[],"stateMutability":"nonpayable"},{"type":"function","name":"confirmTransaction","inputs":[{"name":"proposalId","type":"uint256","internalType":"uint256"}],"outputs":[],"stateMutability":"nonpayable"},{"type":"function","name":"confirmations","inputs":[{"name":"","type":"uint256","internalType":"uint256"},{"name":"","type":"address","internalType":"address"}],"outputs":[{"name":"","type":"bool","internalType":"bool"}],"stateMutability":"view"},{"type":"function","name":"executeGovernance","inputs":[{"name":"proposalId","type":"uint256","internalType":"uint256"}],"outputs":[],"stateMutability":"nonpayable"},{"type":"function","name":"executeTransaction","inputs":[{"name":"proposalId","type":"uint256","internalType":"uint256"}],"outputs":[],"stateMutability":"nonpayable"},{"type":"function","name":"executeWithSignature","inputs":[{"name":"to","type":"address","internalType":"address"},{"name":"value","type":"uint256","internalType":"uint256"},{"name":"data","type":"bytes","internalType":"bytes"},{"name":"nonce","type":"uint256","internalType":"uint256"},{"name":"signature","type":"bytes","internalType":"bytes"}],"outputs":[{"name":"","type":"bool","internalType":"bool"}],"stateMutability":"nonpayable"},{"type":"function","name":"getOwners","inputs":[],"outputs":[{"name":"","type":"address[]","internalType":"address[]"}],"stateMutability":"view"},{"type":"function","name":"getProposal","inputs":[{"name":"proposalId","type":"uint256","internalType":"uint256"}],"outputs":[{"name":"proposer","type":"address","internalType":"address"},{"name":"to","type":"address","internalType":"address"},{"name":"value","type":"uint256","internalType":"uint256"},{"name":"dataHash","type":"bytes32","internalType":"bytes32"},{"name":"confirmations_","type":"uint256","internalType":"uint256"},{"name":"executed","type":"bool","internalType":"bool"},{"name":"createdAt","type":"uint256","internalType":"uint256"},{"name":"executeAfter","type":"uint256","internalType":"uint256"}],"stateMutability":"view"},{"type":"function","name":"isOwner","inputs":[{"name":"","type":"address","internalType":"address"}],"outputs":[{"name":"","type":"bool","internalType":"bool"}],"stateMutability":"view"},{"type":"function","name":"nonces","inputs":[{"name":"","type":"address","internalType":"address"}],"outputs":[{"name":"","type":"uint256","internalType":"uint256"}],"stateMutability":"view"},{"type":"function","name":"proposalCount","inputs":[],"outputs":[{"name":"","type":"uint256","internalType":"uint256"}],"stateMutability":"view"},{"type":"function","name":"proposals","inputs":[{"name":"","type":"uint256","internalType":"uint256"}],"outputs":[{"name":"proposer","type":"address","internalType":"address"},{"name":"to","type":"address","internalType":"address"},{"name":"value","type":"uint256","internalType":"uint256"},{"name":"dataHash","type":"bytes32","internalType":"bytes32"},{"name":"confirmations","type":"uint256","internalType":"uint256"},{"name":"executed","type":"bool","internalType":"bool"},{"name":"createdAt","type":"uint256","internalType":"uint256"},{"name":"executeAfter","type":"uint256","internalType":"uint256"}],"stateMutability":"view"},{"type":"function","name":"proposeAddOwner","inputs":[{"name":"newOwner","type":"address","internalType":"address"}],"outputs":[{"name":"","type":"uint256","internalType":"uint256"}],"stateMutability":"nonpayable"},{"type":"function","name":"proposeChangeThreshold","inputs":[{"name":"newThreshold","type":"uint256","internalType":"uint256"}],"outputs":[{"name":"","type":"uint256","internalType":"uint256"}],"stateMutability":"nonpayable"},{"type":"function","name":"proposeRemoveOwner","inputs":[{"name":"owner","type":"address","internalType":"address"}],"outputs":[{"name":"","type":"uint256","internalType":"uint256"}],"stateMutability":"nonpayable"},{"type":"function","name":"proposeTransaction","inputs":[{"name":"to","type":"address","internalType":"address"},{"name":"value","type":"uint256","internalType":"uint256"},{"name":"data","type":"bytes","internalType":"bytes"}],"outputs":[{"name":"","type":"uint256","internalType":"uint256"}],"stateMutability":"nonpayable"},{"type":"function","name":"threshold","inputs":[],"outputs":[{"name":"","type":"uint256","internalType":"uint256"}],"stateMutability":"view"},{"type":"function","name":"timelockDuration","inputs":[],"outputs":[{"name":"","type":"uint256","internalType":"uint256"}],"stateMutability":"view"},{"type":"function","name":"version","inputs":[],"outputs":[{"name":"","type":"uint256","internalType":"uint256"}],"stateMutability":"pure"},{"type":"function","name":"withdrawDeferred","inputs":[],"outputs":[],"stateMutability":"nonpayable"},{"type":"event","name":"Cancelled","inputs":[{"name":"proposalId","type":"uint256","indexed":true,"internalType":"uint256"},{"name":"canceller","type":"address","indexed":true,"internalType":"address"}],"anonymous":false},{"type":"event","name":"Confirmed","inputs":[{"name":"proposalId","type":"uint256","indexed":true,"internalType":"uint256"},{"name":"confirmer","type":"address","indexed":true,"internalType":"address"}],"anonymous":false},{"type":"event","name":"Deposit","inputs":[{"name":"from","type":"address","indexed":true,"internalType":"address"},{"name":"amount","type":"uint256","indexed":false,"internalType":"uint256"}],"anonymous":false},{"type":"event","name":"Executed","inputs":[{"name":"proposalId","type":"uint256","indexed":true,"internalType":"uint256"},{"name":"executor","type":"address","indexed":true,"internalType":"address"},{"name":"success","type":"bool","indexed":false,"internalType":"bool"},{"name":"result","type":"bytes","indexed":false,"internalType":"bytes"}],"anonymous":false},{"type":"event","name":"NonceIncremented","inputs":[{"name":"owner","type":"address","indexed":true,"internalType":"address"},{"name":"newNonce","type":"uint256","indexed":false,"internalType":"uint256"}],"anonymous":false},{"type":"event","name":"OwnerAdded","inputs":[{"name":"newOwner","type":"address","indexed":true,"internalType":"address"}],"anonymous":false},{"type":"event","name":"OwnerRemoved","inputs":[{"name":"removedOwner","type":"address","indexed":true,"internalType":"address"}],"anonymous":false},{"type":"event","name":"ProposalCreated","inputs":[{"name":"proposalId","type":"uint256","indexed":true,"internalType":"uint256"},{"name":"proposer","type":"address","indexed":true,"internalType":"address"},{"name":"to","type":"address","indexed":true,"internalType":"address"},{"name":"value","type":"uint256","indexed":false,"internalType":"uint256"},{"name":"dataHash","type":"bytes32","indexed":false,"internalType":"bytes32"}],"anonymous":false},{"type":"event","name":"PullPayment","inputs":[{"name":"to","type":"address","indexed":true,"internalType":"address"},{"name":"amount","type":"uint256","indexed":false,"internalType":"uint256"}],"anonymous":false},{"type":"event","name":"ThresholdChanged","inputs":[{"name":"newThreshold","type":"uint256","indexed":false,"internalType":"uint256"}],"anonymous":false}],"bytecode":{"object":"0x60808060405261201780380380916100178285610343565b8339810160608282031261033f5781516001600160401b03811161033f57820181601f8201121561033f578051916001600160401b03831161016c578260051b91604051936100696020850186610343565b845260208085019382010191821161033f57602001915b81831061031f5750505060406020830151920151828251101580610316575b156102d1575f5b82518110156101e957600581901b8301602001516001600160a01b03169081156101b757815f525f60205260ff60405f20541661018057815f525f60205260405f20600160ff19825416179055600154916801000000000000000083101561016c5760018301806001558310156101585760015f8190527fb10e2d527612073b26eecdfd717e6a320cf44b4afac2b0732d9fcbe2b7fa0cf690930180546001600160a01b0319169091179055016100a6565b634e487b7160e01b5f52603260045260245ffd5b634e487b7160e01b5f52604160045260245ffd5b60405162461bcd60e51b815260206004820152600f60248201526e323ab83634b1b0ba329037bbb732b960891b6044820152606490fd5b60405162461bcd60e51b815260206004820152600a6024820152693d32b9379037bbb732b960b11b6044820152606490fd5b50826002556008556040516101ff604082610343565b600e81526d5365637572654d756c746953696760901b602090910152604080517ff110420378b190cc929487f570d1514bdc8e45616916476a1a491a6f5330be629161024b9082610343565b600181526020810190603160f81b82525190206040519060208201927f8b73c3c69bb8fe3d512ecc4cf759cc79239f7b179b0ffacaa9a75d522b39400f8452604083015260608201524660808201523060a082015260a081526102af60c082610343565b519020600755600160ff196009541617600955604051611cb090816103678239f35b60405162461bcd60e51b815260206004820152601860248201527f696e76616c6964206f776e6572732f7468726573686f6c6400000000000000006044820152606490fd5b5082151561009f565b82516001600160a01b038116810361033f57815260209283019201610080565b5f80fd5b601f909101601f19168101906001600160401b0382119082101761016c5760405256fe60806040526004361015610022575b3615610018575f80fd5b610020611bd4565b005b5f3560e01c8062a0d28f146101bb578063013cf08b146101525780630993d763146101b65780632bbca157146101b15780632f54bf6e146101ac5780633380c0d8146101a75780633411c81c146101a25780633644e5151461019d5780633cdf67831461019857806342cde4e81461019357806348cd10c61461018e57806354fd4d5014610189578063592536aa146101845780635e90852d1461017f57806360d2f33d1461017a57806362391520146101755780637ecebe001461017057806383aa4f621461016b578063950bff9f146101665780639c23fa6114610161578063a0e67e2b1461015c578063c01a8c8414610157578063c7f758a814610152578063d966403a1461014d578063da35c664146101485763ee22610b0361000e57611000565b610fe3565b610f43565b6102ae565b610e5b565b610dd2565b610cfe565b610ce4565b610bc3565b610b88565b610b0d565b610ad3565b6109b2565b610876565b61085b565b610704565b6106e7565b610668565b61064b565b6105f9565b610474565b610435565b610418565b610386565b610224565b9181601f840112156101f15782359167ffffffffffffffff83116101f1576020808501948460051b0101116101f157565b5f80fd5b60206003198201126101f1576004359067ffffffffffffffff82116101f157610220916004016101c0565b9091565b346101f157610232366101f5565b90811515806102a3575b15610269575f5b82811061024c57005b8061026361025d600193868661115a565b35611ac2565b01610243565b60405162461bcd60e51b815260206004820152601260248201527118985d18da081cda5e99481a5b9d985b1a5960721b6044820152606490fd5b50602082111561023c565b346101f15760203660031901126101f1576004355f908152600460208181526040928390208054600182015460028301546003840154958401546005850154600686015460079096015489516001600160a01b0396871681529590941696850196909652968301526060820194909452608081019490945260ff909116151560a084015260c083015260e08201528061010081015b0390f35b6001600160a01b038116036101f157565b9181601f840112156101f15782359167ffffffffffffffff83116101f157602083818601950101116101f157565b346101f15760a03660031901126101f1576004356103a381610347565b60243560443567ffffffffffffffff81116101f1576103c6903690600401610358565b9190926064356084359367ffffffffffffffff85116101f157610343956103f46103fc963690600401610358565b9590946111a7565b60405190151581529081906020820190565b5f9103126101f157565b346101f1575f3660031901126101f1576020600854604051908152f35b346101f15760203660031901126101f15760043561045281610347565b60018060a01b03165f525f602052602060ff60405f2054166040519015158152f35b346101f15760203660031901126101f157600435335f525f60205261049f60ff60405f205416611686565b6104f76104f06104e46104ba845f52600460205260405f2090565b6104d76104d26104ce600584015460ff1690565b1590565b6116be565b546001600160a01b031690565b6001600160a01b031690565b33146116fd565b61053b61050c825f52600460205260405f2090565b60075f918281558260018201558260028201558260038201558260048201558260058201558260068201550155565b5f5b6001548110156105d05760019061059e610597610562855f52600560205260405f2090565b61058361056e85611749565b905460039190911b1c6001600160a01b031690565b60018060a01b03165f5260205260405f2090565b5460ff1690565b6105a9575b0161053d565b6105cb6105c1610562855f52600560205260405f2090565b805460ff19169055565b6105a3565b5033907f26deca31ff8139a06c52453ce8985d34f7648a6d9af1d283c4063d052c355a0f5f80a3005b346101f15760403660031901126101f157602060ff61063f60243560043561062082610347565b5f526005845260405f209060018060a01b03165f5260205260405f2090565b54166040519015158152f35b346101f1575f3660031901126101f1576020600754604051908152f35b346101f1575f3660031901126101f157335f52600a60205260405f205480156106b757335f908152600a6020526040812061002092829182918291829055335af16106b16115b7565b50611761565b60405162461bcd60e51b81526020600482015260086024820152676e6f2066756e647360c01b6044820152606490fd5b346101f1575f3660031901126101f1576020600254604051908152f35b346101f15760203660031901126101f15761034360043561072481610347565b335f525f60205261073b60ff60405f205416611686565b61074f6001600160a01b038216151561179f565b61075a600354611583565b9061076482600355565b6040516730b23227bbb732b960c11b6020820190815260609290921b6bffffffffffffffffffffffff191660288201526107ab81603c81015b03601f198101835282611420565b5190206108096107bd600854426117e8565b6107c5611447565b338152903060208301525f60408301528360608301525f60808301525f60a08301524260c083015260e0820152610804845f52600460205260405f2090565b6117f5565b60405190827f6e6d98e9eb4242c1cb7cf89192befbe514b465224d811b9e43447b595ce8b6ff3093806108483395829190602060408401935f81520152565b0390a46040519081529081906020820190565b346101f1575f3660031901126101f157602060405160018152f35b346101f15760603660031901126101f15760043567ffffffffffffffff81116101f1576108a79036906004016101c0565b9060243567ffffffffffffffff81116101f1576108c89036906004016101c0565b91909260443567ffffffffffffffff81116101f1576108eb9036906004016101c0565b949091848114806109a9575b61090090611892565b5f5b81811061090b57005b80602061092461091f61095a94868a61115a565b6118d0565b61092f838a8861115a565b359061093c848c8a6118dd565b604051635e90852d60e01b815296879485949193916004860161192e565b03815f305af19182156109a457600192610976575b5001610902565b6109969060203d811161099d575b61098e8183611420565b81019061191f565b505f61096f565b503d610984565b6114a9565b508086146108f7565b346101f15760603660031901126101f1576004356109cf81610347565b6024356044359167ffffffffffffffff83116101f1576109f6610343933690600401610358565b929092335f525f602052610a1060ff60405f205416611686565b7f6e6d98e9eb4242c1cb7cf89192befbe514b465224d811b9e43447b595ce8b6ff610848610a55610a42600354611583565b968794610a4e86600355565b3691611473565b6020815191012094610ab0610a68611447565b3381526001600160a01b03831660208201528660408201528760608201525f60808201525f60a08201524260c08201525f60e0820152610804865f52600460205260405f2090565b6040805195865260208601969096526001600160a01b0316943394918291820190565b346101f1575f3660031901126101f15760206040517fa07b94c19c1ed6a18de1a560d17067f10cd5f1a3e607c16aab70cd5629f669998152f35b346101f157610b1b366101f5565b5f5b818110610b2657005b610b3181838561115a565b3590303b156101f157604051633006a32160e21b815260048101929092525f8260248183305af19182156109a457600192610b6e575b5001610b1d565b80610b7c5f610b8293611420565b8061040e565b5f610b67565b346101f15760203660031901126101f157600435610ba581610347565b60018060a01b03165f526006602052602060405f2054604051908152f35b346101f15760203660031901126101f157610ca46004356002600954610bee8260ff8316141561116f565b60ff191617600955335f525f602052610c0d60ff60405f205416611686565b610cb2610c22825f52600460205260405f2090565b610c9160036005830192610c3d6104d26104ce865460ff1690565b6001810154610c5f906001600160a01b03166001600160a01b03163014611968565b610c71600482015460025411156119b4565b610c816007820154421015611a00565b0154825460ff1916600117909255565b6040519384916020830160209181520190565b03601f198101845283611420565b5f516020611c5b5f395f51905f5260405180610ccf339582611620565b0390a3610020600160ff196009541617600955565b346101f1575f3660031901126101f1576020604051818152f35b346101f15760203660031901126101f157610343600435335f525f602052610d2c60ff60405f205416611686565b80151580610d84575b610d3e90611a42565b610d49600354611583565b90610d5382600355565b6040516107ab8161079d602082019485602f916e18da185b99d9551a1c995cda1bdb19608a1b8252600f8201520190565b50600154811115610d35565b60206040818301928281528451809452019201905f5b818110610db35750505090565b82516001600160a01b0316845260209384019390920191600101610da6565b346101f1575f3660031901126101f15760405180602060015491828152019060015f527fb10e2d527612073b26eecdfd717e6a320cf44b4afac2b0732d9fcbe2b7fa0cf6905f5b818110610e3c5761034385610e3081870382611420565b60405191829182610d90565b82546001600160a01b0316845260209093019260019283019201610e19565b346101f15760203660031901126101f157600435335f525f602052610e8660ff60405f205416611686565b805f526004602052600460405f20610ea560ff600583015416156116be565b5f8381526005602090815260408083203384529091529020610ed390610ece906104ce90610597565b611a82565b610f0e610f0133610eec865f52600560205260405f2090565b9060018060a01b03165f5260205260405f2090565b805460ff19166001179055565b01610f1981546117da565b905533907f6f220d98c15dbd07fdc24781b682ea34f92411fc61b83c761dd927afbe02d3fd5f80a3005b346101f15760203660031901126101f157610343600435610f6381610347565b335f525f602052610f7a60ff60405f205416611686565b610f8e6001600160a01b038216151561179f565b610f99600354611583565b90610fa382600355565b6040516a3932b6b7bb32a7bbb732b960a91b6020820190815260609290921b6bffffffffffffffffffffffff1916602b8201526107ab81603f810161079d565b346101f1575f3660031901126101f1576020600354604051908152f35b346101f15760203660031901126101f15760043560026009546110288260ff8316141561116f565b60ff191617600955335f525f60205261104760ff60405f205416611686565b5f8061105b835f52600460205260405f2090565b611091600582016110736104d26104ce835460ff1690565b600783015480611134575b50610f01600484015460025411156119b4565b60018101546001600160a01b0316907fc5d2460186f7233c927e7db2dcc703c0e500b653ca82273b7bfad8045d85a47060036002830154920154148314611126576110da6115a3565b905b6040516110f18161079d602082018096611bc2565b51925af1905f516020611c5b5f395f51905f52610ccf61110f6115b7565b611118856115e6565b604051918291339683611652565b61112e6115a3565b906110dc565b61114090421015611a00565b5f61107e565b634e487b7160e01b5f52603260045260245ffd5b919081101561116a5760051b0190565b611146565b1561117657565b60405162461bcd60e51b81526020600482015260096024820152681c99595b9d1c985b9d60ba1b6044820152606490fd5b9291946112c882976112a461129f5f94602096896112618c61079d8f6111eb908e60026009546111dc8260ff8316141561116f565b60ff1916176009553691611473565b8c8151910120946040519485938e850197309346938a94919260c0949197969360e08701987fa07b94c19c1ed6a18de1a560d17067f10cd5f1a3e607c16aab70cd5629f66999885260018060a01b0316602088015260408701526060860152608085015260a084015260018060a01b0316910152565b51902060075460405161190160f01b8a82019081526002810192909252602282019290925290611294816042840161079d565b519020933691611473565b611c02565b6040805194855260ff90931660208501529183015260608201529081906080820190565b838052039060015afa156109a457611360945f9485947fa82a649bbd060c9099cd7b7326e2b0dc9e9af0836480e0f849dc9eaa79710b3b6113ad61139c885160018060a01b0381169b8c9561131e8715156114b4565b61134261133d6105978560018060a01b03165f525f60205260405f2090565b6114f4565b6001600160a01b0383165f9081526006602052604090205414611533565b6001600160a01b0381165f9081526006602052604090206113818154611583565b90556001600160a01b03165f90815260066020526040902090565b546040519081529081906020820190565b0390a26113bf60405180948193611596565b03925af1905f5f516020611c5b5f395f51905f526113f46113de6115b7565b6113e7866115e6565b6040519182918783611652565b0390a39061140a600160ff196009541617600955565b565b634e487b7160e01b5f52604160045260245ffd5b90601f8019910116810190811067ffffffffffffffff82111761144257604052565b61140c565b6040519061140a61010083611420565b67ffffffffffffffff811161144257601f01601f191660200190565b92919261147f82611457565b9161148d6040519384611420565b8294818452818301116101f1578281602093845f960137010152565b6040513d5f823e3d90fd5b156114bb57565b60405162461bcd60e51b8152602060048201526011602482015270696e76616c6964207369676e617475726560781b6044820152606490fd5b156114fb57565b60405162461bcd60e51b815260206004820152601060248201526f39b4b3b732b9103737ba1037bbb732b960811b6044820152606490fd5b1561153a57565b60405162461bcd60e51b815260206004820152600d60248201526c696e76616c6964206e6f6e636560981b6044820152606490fd5b634e487b7160e01b5f52601160045260245ffd5b5f1981146115915760010190565b61156f565b908092918237015f815290565b604051906115b2602083611420565b5f8252565b3d156115e1573d906115c882611457565b916115d66040519384611420565b82523d5f602084013e565b606090565b156115ed57565b60405162461bcd60e51b815260206004820152600b60248201526a18d85b1b0819985a5b195960aa1b6044820152606490fd5b6020606092600183526040828401528051918291826040860152018484015e5f828201840152601f01601f1916010190565b90606092602091151583526040828401528051918291826040860152018484015e5f828201840152601f01601f1916010190565b1561168d57565b60405162461bcd60e51b81526020600482015260096024820152683737ba1037bbb732b960b91b6044820152606490fd5b156116c557565b60405162461bcd60e51b815260206004820152601060248201526f185b1c9958591e48195e1958dd5d195960821b6044820152606490fd5b1561170457565b60405162461bcd60e51b815260206004820152601860248201527f6f6e6c792070726f706f736572206d61792063616e63656c00000000000000006044820152606490fd5b60015481101561116a5760015f5260205f2001905f90565b1561176857565b60405162461bcd60e51b815260206004820152600f60248201526e1dda5d1a191c985dc819985a5b1959608a1b6044820152606490fd5b156117a657565b60405162461bcd60e51b815260206004820152600c60248201526b7a65726f206164647265737360a01b6044820152606490fd5b906001820180921161159157565b9190820180921161159157565b815181546001600160a01b0319166001600160a01b039091161781559060079060e09060208101516001850180546001600160a01b0319166001600160a01b0390921691909117905560408101516002850155606081015160038501556080810151600485015561188161186c60a0830151151590565b600586019060ff801983541691151516179055565b60c081015160068501550151910155565b1561189957565b60405162461bcd60e51b815260206004820152600f60248201526e0d8cadccee8d040dad2e6dac2e8c6d608b1b6044820152606490fd5b356118da81610347565b90565b919081101561116a5760051b81013590601e19813603018212156101f157019081359167ffffffffffffffff83116101f15760200182360381136101f1579190565b908160209103126101f1575190565b9284926080959260018060a01b03168552602085015260606040850152816060850152848401375f828201840152601f01601f1916010190565b1561196f57565b60405162461bcd60e51b815260206004820152601760248201527f6e6f7420676f7665726e616e63652070726f706f73616c0000000000000000006044820152606490fd5b156119bb57565b60405162461bcd60e51b815260206004820152601860248201527f6e6f7420656e6f75676820636f6e6669726d6174696f6e7300000000000000006044820152606490fd5b15611a0757565b60405162461bcd60e51b81526020600482015260136024820152721d1a5b595b1bd8dac81b9bdd081c185cdcd959606a1b6044820152606490fd5b15611a4957565b60405162461bcd60e51b81526020600482015260116024820152701a5b9d985b1a59081d1a1c995cda1bdb19607a1b6044820152606490fd5b15611a8957565b60405162461bcd60e51b8152602060048201526011602482015270185b1c9958591e4818dbdb999a5c9b5959607a1b6044820152606490fd5b6002600954611ad68260ff8316141561116f565b60ff191617600955335f525f602052611af560ff60405f205416611686565b5f80611b09835f52600460205260405f2090565b611b21600582016110736104d26104ce835460ff1690565b60018101546001600160a01b0316907fc5d2460186f7233c927e7db2dcc703c0e500b653ca82273b7bfad8045d85a47060036002830154920154148314611bb457611b6a6115a3565b905b604051611b818161079d602082018096611bc2565b51925af1905f516020611c5b5f395f51905f52611b9f61110f6115b7565b0390a361140a600160ff196009541617600955565b611bbc6115a3565b90611b6c565b805191908290602001825e015f815290565b6040513481527fe1fffcc4923d04b559f4d29a8bfc6cda04eb5b0d3c460751c2402c5c5cc9109c60203392a2565b6041815103611c2057602081015190606060408201519101515f1a92565b60405162461bcd60e51b81526020600482015260126024820152710d2dcecc2d8d2c840e6d2ce40d8cadccee8d60731b6044820152606490fdfe40ad9bda067c2d6c5f31b3101e5f886043d36c6a6258478f17a2152af947a196a264697066735822122035a2459cae913bfe1d3363fc4ab4af8e6a5e14f641ee22fd3ba80b37319f1d8664736f6c634300081e0033","linkReferences":{}},"methodIdentifiers":{"DOMAIN_SEPARATOR()":"3644e515","EXECUTE_TYPEHASH()":"60d2f33d","MAX_BATCH()":"950bff9f","batchConfirm(uint256[])":"62391520","batchExecute(uint256[])":"00a0d28f","batchPropose(address[],uint256[],bytes[])":"592536aa","cancelTransaction(uint256)":"3380c0d8","confirmTransaction(uint256)":"c01a8c84","confirmations(uint256,address)":"3411c81c","executeGovernance(uint256)":"83aa4f62","executeTransaction(uint256)":"ee22610b","executeWithSignature(address,uint256,bytes,uint256,bytes)":"0993d763","getOwners()":"a0e67e2b","getProposal(uint256)":"c7f758a8","isOwner(address)":"2f54bf6e","nonces(address)":"7ecebe00","proposalCount()":"da35c664","proposals(uint256)":"013cf08b","proposeAddOwner(address)":"48cd10c6","proposeChangeThreshold(uint256)":"9c23fa61","proposeRemoveOwner(address)":"d966403a","proposeTransaction(address,uint256,bytes)":"5e90852d","threshold()":"42cde4e8","timelockDuration()":"2bbca157","version()":"54fd4d50","withdrawDeferred()":"3cdf6783"},"id":17}