{"abi":[{"type":"constructor","inputs":[{"name":"_owners","type":"address[]","internalType":"address[]"},{"name":"_threshold","type":"uint256","internalType":"uint256"},{"name":"_timelockDuration","type":"uint256","internalType":"uint256"}],"stateMutability":"payable"},{"type":"receive","stateMutability":"payable"},{"type":"function","name":"DOMAIN_SEPARATOR","inputs":[],"outputs":[{"name":"","type":"bytes32","internalType":"bytes32"}],"stateMutability":"view"},{"type":"function","name":"EXECUTE_TYPEHASH","inputs":[],"outputs":[{"name":"","type":"bytes32","internalType":"bytes32"}],"stateMutability":"view"},{"type":"function","name":"MAX_BATCH","inputs":[],"outputs":[{"name":"","type":"uint256","internalType":"uint256"}],"stateMutability":"view"},{"type":"function","name":"batchConfirm","inputs":[{"name":"ids","type":"uint256[]","internalType":"uint256[]"}],"outputs":[],"stateMutability":"nonpayable"},{"type":"function","name":"batchExecute","inputs":[{"name":"ids","type":"uint256[]","internalType":"uint256[]"}],"outputs":[],"stateMutability":"nonpayable"},{"type":"function","name":"batchPropose","inputs":[{"name":"tos","type":"address[]","internalType":"address[]"},{"name":"values","type":"uint256[]","internalType":"uint256[]"},{"name":"datas","type":"bytes[]","internalType":"bytes[]"}],"outputs":[],"stateMutability":"nonpayable"},{"type":"function","name":"cancelTransaction","inputs":[{"name":"proposalId","type":"uint256","internalType":"uint256"}],"outputs":[],"stateMutability":"nonpayable"},{"type":"function","name":"confirmTransaction","inputs":[{"name":"proposalId","type":"uint256","internalType":"uint256"}],"outputs":[],"stateMutability":"nonpayable"},{"type":"function","name":"confirmations","inputs":[{"name":"","type":"uint256","internalType":"uint256"},{"name":"","type":"address","internalType":"address"}],"outputs":[{"name":"","type":"bool","internalType":"bool"}],"stateMutability":"view"},{"type":"function","name":"executeGovernance","inputs":[{"name":"proposalId","type":"uint256","internalType":"uint256"}],"outputs":[],"stateMutability":"nonpayable"},{"type":"function","name":"executeTransaction","inputs":[{"name":"proposalId","type":"uint256","internalType":"uint256"}],"outputs":[],"stateMutability":"nonpayable"},{"type":"function","name":"executeWithSignature","inputs":[{"name":"to","type":"address","internalType":"address"},{"name":"value","type":"uint256","internalType":"uint256"},{"name":"data","type":"bytes","internalType":"bytes"},{"name":"nonce","type":"uint256","internalType":"uint256"},{"name":"signature","type":"bytes","internalType":"bytes"}],"outputs":[{"name":"","type":"bool","internalType":"bool"}],"stateMutability":"nonpayable"},{"type":"function","name":"getOwners","inputs":[],"outputs":[{"name":"","type":"address[]","internalType":"address[]"}],"stateMutability":"view"},{"type":"function","name":"getProposal","inputs":[{"name":"proposalId","type":"uint256","internalType":"uint256"}],"outputs":[{"name":"proposer","type":"address","internalType":"address"},{"name":"to","type":"address","internalType":"address"},{"name":"value","type":"uint256","internalType":"uint256"},{"name":"dataHash","type":"bytes32","internalType":"bytes32"},{"name":"confirmations_","type":"uint256","internalType":"uint256"},{"name":"executed","type":"bool","internalType":"bool"},{"name":"createdAt","type":"uint256","internalType":"uint256"},{"name":"executeAfter","type":"uint256","internalType":"uint256"}],"stateMutability":"view"},{"type":"function","name":"isOwner","inputs":[{"name":"","type":"address","internalType":"address"}],"outputs":[{"name":"","type":"bool","internalType":"bool"}],"stateMutability":"view"},{"type":"function","name":"nonces","inputs":[{"name":"","type":"address","internalType":"address"}],"outputs":[{"name":"","type":"uint256","internalType":"uint256"}],"stateMutability":"view"},{"type":"function","name":"proposalCount","inputs":[],"outputs":[{"name":"","type":"uint256","internalType":"uint256"}],"stateMutability":"view"},{"type":"function","name":"proposals","inputs":[{"name":"","type":"uint256","internalType":"uint256"}],"outputs":[{"name":"proposer","type":"address","internalType":"address"},{"name":"to","type":"address","internalType":"address"},{"name":"value","type":"uint256","internalType":"uint256"},{"name":"dataHash","type":"bytes32","internalType":"bytes32"},{"name":"confirmations","type":"uint256","internalType":"uint256"},{"name":"executed","type":"bool","internalType":"bool"},{"name":"createdAt","type":"uint256","internalType":"uint256"},{"name":"executeAfter","type":"uint256","internalType":"uint256"},{"name":"data","type":"bytes","internalType":"bytes"}],"stateMutability":"view"},{"type":"function","name":"proposeAddOwner","inputs":[{"name":"newOwner","type":"address","internalType":"address"}],"outputs":[{"name":"","type":"uint256","internalType":"uint256"}],"stateMutability":"nonpayable"},{"type":"function","name":"proposeChangeThreshold","inputs":[{"name":"newThreshold","type":"uint256","internalType":"uint256"}],"outputs":[{"name":"","type":"uint256","internalType":"uint256"}],"stateMutability":"nonpayable"},{"type":"function","name":"proposeRemoveOwner","inputs":[{"name":"owner","type":"address","internalType":"address"}],"outputs":[{"name":"","type":"uint256","internalType":"uint256"}],"stateMutability":"nonpayable"},{"type":"function","name":"proposeTransaction","inputs":[{"name":"to","type":"address","internalType":"address"},{"name":"value","type":"uint256","internalType":"uint256"},{"name":"data","type":"bytes","internalType":"bytes"}],"outputs":[{"name":"","type":"uint256","internalType":"uint256"}],"stateMutability":"nonpayable"},{"type":"function","name":"threshold","inputs":[],"outputs":[{"name":"","type":"uint256","internalType":"uint256"}],"stateMutability":"view"},{"type":"function","name":"timelockDuration","inputs":[],"outputs":[{"name":"","type":"uint256","internalType":"uint256"}],"stateMutability":"view"},{"type":"function","name":"version","inputs":[],"outputs":[{"name":"","type":"uint256","internalType":"uint256"}],"stateMutability":"pure"},{"type":"function","name":"withdrawDeferred","inputs":[],"outputs":[],"stateMutability":"nonpayable"},{"type":"event","name":"Cancelled","inputs":[{"name":"proposalId","type":"uint256","indexed":true,"internalType":"uint256"},{"name":"canceller","type":"address","indexed":true,"internalType":"address"}],"anonymous":false},{"type":"event","name":"Confirmed","inputs":[{"name":"proposalId","type":"uint256","indexed":true,"internalType":"uint256"},{"name":"confirmer","type":"address","indexed":true,"internalType":"address"}],"anonymous":false},{"type":"event","name":"DebugPropose","inputs":[{"name":"sender","type":"address","indexed":false,"internalType":"address"},{"name":"to","type":"address","indexed":false,"internalType":"address"},{"name":"value","type":"uint256","indexed":false,"internalType":"uint256"}],"anonymous":false},{"type":"event","name":"Deposit","inputs":[{"name":"from","type":"address","indexed":true,"internalType":"address"},{"name":"amount","type":"uint256","indexed":false,"internalType":"uint256"}],"anonymous":false},{"type":"event","name":"Executed","inputs":[{"name":"proposalId","type":"uint256","indexed":true,"internalType":"uint256"},{"name":"executor","type":"address","indexed":true,"internalType":"address"},{"name":"success","type":"bool","indexed":false,"internalType":"bool"},{"name":"result","type":"bytes","indexed":false,"internalType":"bytes"}],"anonymous":false},{"type":"event","name":"NonceIncremented","inputs":[{"name":"owner","type":"address","indexed":true,"internalType":"address"},{"name":"newNonce","type":"uint256","indexed":false,"internalType":"uint256"}],"anonymous":false},{"type":"event","name":"OwnerAdded","inputs":[{"name":"newOwner","type":"address","indexed":true,"internalType":"address"}],"anonymous":false},{"type":"event","name":"OwnerRemoved","inputs":[{"name":"removedOwner","type":"address","indexed":true,"internalType":"address"}],"anonymous":false},{"type":"event","name":"ProposalCreated","inputs":[{"name":"proposalId","type":"uint256","indexed":true,"internalType":"uint256"},{"name":"proposer","type":"address","indexed":true,"internalType":"address"},{"name":"to","type":"address","indexed":true,"internalType":"address"},{"name":"value","type":"uint256","indexed":false,"internalType":"uint256"},{"name":"dataHash","type":"bytes32","indexed":false,"internalType":"bytes32"}],"anonymous":false},{"type":"event","name":"PullPayment","inputs":[{"name":"to","type":"address","indexed":true,"internalType":"address"},{"name":"amount","type":"uint256","indexed":false,"internalType":"uint256"}],"anonymous":false},{"type":"event","name":"ThresholdChanged","inputs":[{"name":"newThreshold","type":"uint256","indexed":false,"internalType":"uint256"}],"anonymous":false}],"bytecode":{"object":"0x60808060405261296480380380916100178285610343565b8339810160608282031261033f5781516001600160401b03811161033f57820181601f8201121561033f578051916001600160401b03831161016c578260051b91604051936100696020850186610343565b845260208085019382010191821161033f57602001915b81831061031f5750505060406020830151920151828251101580610316575b156102d1575f5b82518110156101e957600581901b8301602001516001600160a01b03169081156101b757815f525f60205260ff60405f20541661018057815f525f60205260405f20600160ff19825416179055600154916801000000000000000083101561016c5760018301806001558310156101585760015f8190527fb10e2d527612073b26eecdfd717e6a320cf44b4afac2b0732d9fcbe2b7fa0cf690930180546001600160a01b0319169091179055016100a6565b634e487b7160e01b5f52603260045260245ffd5b634e487b7160e01b5f52604160045260245ffd5b60405162461bcd60e51b815260206004820152600f60248201526e323ab83634b1b0ba329037bbb732b960891b6044820152606490fd5b60405162461bcd60e51b815260206004820152600a6024820152693d32b9379037bbb732b960b11b6044820152606490fd5b50826002556008556040516101ff604082610343565b600e81526d5365637572654d756c746953696760901b602090910152604080517ff110420378b190cc929487f570d1514bdc8e45616916476a1a491a6f5330be629161024b9082610343565b600181526020810190603160f81b82525190206040519060208201927f8b73c3c69bb8fe3d512ecc4cf759cc79239f7b179b0ffacaa9a75d522b39400f8452604083015260608201524660808201523060a082015260a081526102af60c082610343565b519020600755600160ff1960095416176009556040516125fd90816103678239f35b60405162461bcd60e51b815260206004820152601860248201527f696e76616c6964206f776e6572732f7468726573686f6c6400000000000000006044820152606490fd5b5082151561009f565b82516001600160a01b038116810361033f57815260209283019201610080565b5f80fd5b601f909101601f19168101906001600160401b0382119082101761016c5760405256fe60806040526004361015610022575b3615610018575f80fd5b610020612098565b005b5f3560e01c8062a0d28f146101c0578063013cf08b146101bb5780630993d763146101b65780632bbca157146101b15780632f54bf6e146101ac5780633380c0d8146101a75780633411c81c146101a25780633644e5151461019d5780633cdf67831461019857806342cde4e81461019357806348cd10c61461018e57806354fd4d5014610189578063592536aa146101845780635e90852d1461017f57806360d2f33d1461017a57806362391520146101755780637ecebe001461017057806383aa4f621461016b578063950bff9f146101665780639c23fa6114610161578063a0e67e2b1461015c578063c01a8c8414610157578063c7f758a814610152578063d966403a1461014d578063da35c664146101485763ee22610b0361000e5761133e565b611321565b611283565b6111ef565b61112e565b6110a5565b610fa2565b610f88565b610cf4565b610cb9565b610bb9565b610b7f565b610b11565b6109d7565b6109bc565b61083f565b610822565b6107a3565b610786565b610734565b6105d9565b61059a565b61057d565b6104f7565b61043e565b610227565b9181601f840112156101f5578235916001600160401b0383116101f5576020808501948460051b0101116101f557565b5f80fd5b60206003198201126101f557600435906001600160401b0382116101f557610223916004016101c5565b9091565b346101f557610235366101f9565b90811515806102a6575b1561026c575f5b82811061024f57005b806102666102606001938686611452565b35611f74565b01610246565b60405162461bcd60e51b815260206004820152601260248201527118985d18da081cda5e99481a5b9d985b1a5960721b6044820152606490fd5b50602082111561023f565b90600182811c921680156102df575b60208310146102cb57565b634e487b7160e01b5f52602260045260245ffd5b91607f16916102c0565b634e487b7160e01b5f52604160045260245ffd5b90601f801991011681019081106001600160401b0382111761031e57604052565b6102e9565b9060405191825f825492610336846102b1565b80845293600181169081156103a1575060011461035d575b5061035b925003836102fd565b565b90505f9291925260205f20905f915b81831061038557505090602061035b928201015f61034e565b602091935080600191548385890101520191019091849261036c565b90506020925061035b94915060ff191682840152151560051b8201015f61034e565b805180835260209291819084018484015e5f828201840152601f01601f1916010190565b959261043b9998959261012098959260018060a01b0316885260018060a01b03166020880152604087015260608601526080850152151560a084015260c083015260e08201528161010082015201906103c3565b90565b346101f55760203660031901126101f5576004355f52600460205260405f2060018060a01b038154166104b560018060a01b03600184015416926002810154906003810154600482015460ff600584015416906006840154926104a8600860078701549601610323565b95604051998a998a6103e7565b0390f35b6001600160a01b038116036101f557565b9181601f840112156101f5578235916001600160401b0383116101f557602083818601950101116101f557565b346101f55760a03660031901126101f557600435610514816104b9565b6024356044356001600160401b0381116101f5576105369036906004016104ca565b919092606435608435936001600160401b0385116101f5576104b59561056361056b9636906004016104ca565b95909461149f565b60405190151581529081906020820190565b346101f5575f3660031901126101f5576020600854604051908152f35b346101f55760203660031901126101f5576004356105b7816104b9565b60018060a01b03165f525f602052602060ff60405f2054166040519015158152f35b346101f55760203660031901126101f557600435335f525f60205261060460ff60405f205416611955565b61065c61065561064961061f845f52600460205260405f2090565b61063c610637610633600584015460ff1690565b1590565b61198d565b546001600160a01b031690565b6001600160a01b031690565b33146119cc565b610676610671825f52600460205260405f2090565b611a2e565b5f5b60015481101561070b576001906106d96106d261069d855f52600560205260405f2090565b6106be6106a985611aba565b905460039190911b1c6001600160a01b031690565b60018060a01b03165f5260205260405f2090565b5460ff1690565b6106e4575b01610678565b6107066106fc61069d855f52600560205260405f2090565b805460ff19169055565b6106de565b5033907f26deca31ff8139a06c52453ce8985d34f7648a6d9af1d283c4063d052c355a0f5f80a3005b346101f55760403660031901126101f557602060ff61077a60243560043561075b826104b9565b5f526005845260405f209060018060a01b03165f5260205260405f2090565b54166040519015158152f35b346101f5575f3660031901126101f5576020600754604051908152f35b346101f5575f3660031901126101f557335f52600a60205260405f205480156107f257335f908152600a6020526040812061002092829182918291829055335af16107ec6118bb565b50611ad2565b60405162461bcd60e51b81526020600482015260086024820152676e6f2066756e647360c01b6044820152606490fd5b346101f5575f3660031901126101f5576020600254604051908152f35b346101f55760203660031901126101f5576104b560043561085f816104b9565b335f525f60205261087660ff60405f205416611955565b61088a6001600160a01b0382161515611b10565b61089560035461189b565b9061089f82600355565b6040516730b23227bbb732b960c11b60208201908152606083901b6001600160601b031916602883015261096a916108e481603c81015b03601f1981018352826102fd565b519020916108d66109186108fa60085442611b59565b604080516001600160a01b0390951660208601529093928391820190565b610920611760565b338152913060208401525f60408401528460608401525f60808401525f60a08401524260c084015260e0830152610100820152610965845f52600460205260405f2090565b611c74565b60405190827f6e6d98e9eb4242c1cb7cf89192befbe514b465224d811b9e43447b595ce8b6ff3093806109a93395829190602060408401935f81520152565b0390a46040519081529081906020820190565b346101f5575f3660031901126101f557602060405160018152f35b346101f55760603660031901126101f5576004356001600160401b0381116101f557610a079036906004016101c5565b906024356001600160401b0381116101f557610a279036906004016101c5565b9190926044356001600160401b0381116101f557610a499036906004016101c5565b949091335f525f602052610a6360ff60405f205416611955565b8015610add57610a766020821115611d21565b84811480610ad4575b610a8890611d6d565b5f5b818110610a9357005b80610acd610aac610aa7600194868a611452565b611dab565b610ab7838a88611452565b3590610ac4848c8a611db5565b9290913361211e565b5001610a8a565b50808614610a7f565b60405162461bcd60e51b815260206004820152600c60248201526b6e6f2070726f706f73616c7360a01b6044820152606490fd5b346101f55760603660031901126101f557600435610b2e816104b9565b602435604435916001600160401b0383116101f557610b54610b749336906004016104ca565b929091335f525f602052610b6e60ff60405f205416611955565b3361211e565b604051908152602090f35b346101f5575f3660031901126101f55760206040517fa07b94c19c1ed6a18de1a560d17067f10cd5f1a3e607c16aab70cd5629f669998152f35b346101f557610bc7366101f9565b5f5b818110610bd257005b80610be06001928486611452565b35335f525f602052610bf860ff60405f205416611955565b805f526004602052600460405f20610c1760ff6005830154161561198d565b5f8381526005602090815260408083203384529091529020610c4590610c4090610633906106d2565b611f34565b610c80610c7333610c5e865f52600560205260405f2090565b9060018060a01b03165f5260205260405f2090565b805460ff19166001179055565b01610c8b8154611b4b565b905533907f6f220d98c15dbd07fdc24781b682ea34f92411fc61b83c761dd927afbe02d3fd5f80a301610bc9565b346101f55760203660031901126101f557600435610cd6816104b9565b60018060a01b03165f526006602052602060405f2054604051908152f35b346101f55760203660031901126101f5576004356002600954610d1c8260ff83161415611467565b60ff191617600955335f525f602052610d3b60ff60405f205416611955565b610d4d815f52600460205260405f2090565b90610daa60058301610d66610637610633835460ff1690565b6001840154610d88906001600160a01b03166001600160a01b03163014611df6565b610d9a60048501546002541115611e42565b610c736007850154421015611e8e565b60036008830192610dc3610dbd85610323565b94610323565b500154825190610ddb60208086019386010183611ed0565b6040516730b23227bbb732b960c11b6020820190815260609290921b6001600160601b0319166028820152610e1381603c81016108d6565b5190208103610e6b5750610e34610649610e39926020865187010190611ed0565b6124cc565b5f5160206125a85f395f51905f5260405180610e56339582611924565b0390a3610020600160ff196009541617600955565b610e7b6020855186010183611ed0565b6040516a3932b6b7bb32a7bbb732b960a91b6020820190815260609290921b6001600160601b031916602b820152610eb681603f81016108d6565b5190208103610ee15750610ed7610649610edc926020865187010190611ed0565b61231d565b610e39565b610ef16020855186010183611ee5565b604051610f22816108d6602082019485602f916e18da185b99d9551a1c995cda1bdb19608a1b8252600f8201520190565b51902003610f4357610f3e610edc916020855186010190611ee5565b612259565b60405162461bcd60e51b815260206004820152601960248201527f756e6b6e6f776e20676f7665726e616e636520616374696f6e000000000000006044820152606490fd5b346101f5575f3660031901126101f5576020604051818152f35b346101f55760203660031901126101f5576104b5600435335f525f602052610fd060ff60405f205416611955565b80151580611057575b610fe290611ef4565b610fed60035461189b565b90610ff782600355565b61096a604051602081019061102c816108d68685602f916e18da185b99d9551a1c995cda1bdb19608a1b8252600f8201520190565b519020916108d661091861104260085442611b59565b92604051928391602083019190602083019252565b50600154811115610fd9565b60206040818301928281528451809452019201905f5b8181106110865750505090565b82516001600160a01b0316845260209384019390920191600101611079565b346101f5575f3660031901126101f55760405180602060015491828152019060015f527fb10e2d527612073b26eecdfd717e6a320cf44b4afac2b0732d9fcbe2b7fa0cf6905f5b81811061110f576104b585611103818703826102fd565b60405191829182611063565b82546001600160a01b03168452602090930192600192830192016110ec565b346101f55760203660031901126101f557600435335f525f60205261115960ff60405f205416611955565b805f526004602052600460405f2061117860ff6005830154161561198d565b5f83815260056020908152604080832033845290915290206111a190610c4090610633906106d2565b6111ba610c7333610c5e865f52600560205260405f2090565b016111c58154611b4b565b905533907f6f220d98c15dbd07fdc24781b682ea34f92411fc61b83c761dd927afbe02d3fd5f80a3005b346101f55760203660031901126101f5576004355f908152600460208181526040928390208054600182015460028301546003840154958401546005850154600686015460079096015489516001600160a01b0396871681529590941696850196909652968301526060820194909452608081019490945260ff909116151560a084015260c083015260e082015261010090f35b346101f55760203660031901126101f5576104b56004356112a3816104b9565b335f525f6020526112ba60ff60405f205416611955565b6112ce6001600160a01b0382161515611b10565b6112d960035461189b565b906112e382600355565b6040516a3932b6b7bb32a7bbb732b960a91b60208201908152606083901b6001600160601b031916602b83015261096a916108e481603f81016108d6565b346101f5575f3660031901126101f5576020600354604051908152f35b346101f55760203660031901126101f55760043560026009546113668260ff83161415611467565b60ff191617600955335f525f60205261138560ff60405f205416611955565b5f80611399835f52600460205260405f2090565b6113cf600582016113b1610637610633835460ff1690565b60078301548061142c575b50610c7360048401546002541115611e42565b60018101546008906001600160a01b0316916002810154906113f7604051809481930161202e565b03925af1905f5160206125a85f395f51905f52610e566114156118bb565b61141e856118ea565b60405191829133968361193c565b61143890421015611e8e565b5f6113bc565b634e487b7160e01b5f52603260045260245ffd5b91908110156114625760051b0190565b61143e565b1561146e57565b60405162461bcd60e51b81526020600482015260096024820152681c99595b9d1c985b9d60ba1b6044820152606490fd5b9291946115d482976115b06115ab5f946020968961156d8c6108d68f6114f7908e60026009546114d48260ff83161415611467565b60ff1916176009556114f06001600160a01b038816151561171b565b369161178b565b8c8151910120946040519485938e850197309346938a94919260c0949197969360e08701987fa07b94c19c1ed6a18de1a560d17067f10cd5f1a3e607c16aab70cd5629f66999885260018060a01b0316602088015260408701526060860152608085015260a084015260018060a01b0316910152565b51902060075460405161190160f01b8a820190815260028101929092526022820192909252906115a081604284016108d6565b51902093369161178b565b6120c6565b6040805194855260ff90931660208501529183015260608201529081906080820190565b838052039060015afa156117165761166c945f9485947fa82a649bbd060c9099cd7b7326e2b0dc9e9af0836480e0f849dc9eaa79710b3b6116b96116a8885160018060a01b0381169b8c9561162a8715156117cc565b61164e6116496106d28560018060a01b03165f525f60205260405f2090565b61180c565b6001600160a01b0383165f908152600660205260409020541461184b565b6001600160a01b0381165f90815260066020526040902061168d815461189b565b90556001600160a01b03165f90815260066020526040902090565b546040519081529081906020820190565b0390a26116cb604051809481936118ae565b03925af1905f5f5160206125a85f395f51905f526117006116ea6118bb565b6116f3866118ea565b604051918291878361193c565b0390a39061035b600160ff196009541617600955565b6117c1565b1561172257565b60405162461bcd60e51b8152602060048201526016602482015275746172676574206973207a65726f206164647265737360501b6044820152606490fd5b6040519061035b610120836102fd565b6001600160401b03811161031e57601f01601f191660200190565b92919261179782611770565b916117a560405193846102fd565b8294818452818301116101f5578281602093845f960137010152565b6040513d5f823e3d90fd5b156117d357565b60405162461bcd60e51b8152602060048201526011602482015270696e76616c6964207369676e617475726560781b6044820152606490fd5b1561181357565b60405162461bcd60e51b815260206004820152601060248201526f39b4b3b732b9103737ba1037bbb732b960811b6044820152606490fd5b1561185257565b60405162461bcd60e51b815260206004820152600d60248201526c696e76616c6964206e6f6e636560981b6044820152606490fd5b634e487b7160e01b5f52601160045260245ffd5b5f1981146118a95760010190565b611887565b908092918237015f815290565b3d156118e5573d906118cc82611770565b916118da60405193846102fd565b82523d5f602084013e565b606090565b156118f157565b60405162461bcd60e51b815260206004820152600b60248201526a18d85b1b0819985a5b195960aa1b6044820152606490fd5b90604061043b926001815281602082015201906103c3565b60409061043b93921515815281602082015201906103c3565b1561195c57565b60405162461bcd60e51b81526020600482015260096024820152683737ba1037bbb732b960b91b6044820152606490fd5b1561199457565b60405162461bcd60e51b815260206004820152601060248201526f185b1c9958591e48195e1958dd5d195960821b6044820152606490fd5b156119d357565b60405162461bcd60e51b815260206004820152601860248201527f6f6e6c792070726f706f736572206d61792063616e63656c00000000000000006044820152606490fd5b818110611a23575050565b5f8155600101611a18565b6008905f81555f60018201555f60028201555f60038201555f60048201555f60058201555f60068201555f600782015501611a6981546102b1565b9081611a73575050565b601f8211600114611a84575f905550565b611aaa61035b926001601f611a9c855f5260205f2090565b920160051c82019101611a18565b5f81815260208120918190559055565b6001548110156114625760015f5260205f2001905f90565b15611ad957565b60405162461bcd60e51b815260206004820152600f60248201526e1dda5d1a191c985dc819985a5b1959608a1b6044820152606490fd5b15611b1757565b60405162461bcd60e51b815260206004820152600c60248201526b7a65726f206164647265737360a01b6044820152606490fd5b90600182018092116118a957565b919082018092116118a957565b9190601f8111611b7557505050565b61035b925f5260205f20906020601f840160051c83019310611b9f575b601f0160051c0190611a18565b9091508190611b92565b91909182516001600160401b03811161031e57611bd081611bca84546102b1565b84611b66565b6020601f8211600114611c0f578190611c009394955f92611c04575b50508160011b915f199060031b1c19161790565b9055565b015190505f80611bec565b601f19821690611c22845f5260205f2090565b915f5b818110611c5c57509583600195969710611c44575b505050811b019055565b01515f1960f88460031b161c191690555f8080611c3a565b9192602060018192868b015181550194019201611c25565b815181546001600160a01b0319166001600160a01b0390911617815561035b916008906101009060208101516001850180546001600160a01b0319166001600160a01b03909216919091179055604081015160028501556060810151600385015560808101516004850155611d04611cef60a0830151151590565b600586019060ff801983541691151516179055565b60c0810151600685015560e0810151600785015501519101611ba9565b15611d2857565b60405162461bcd60e51b815260206004820152601c60248201527f62617463682073697a652065786365656473204d41585f4241544348000000006044820152606490fd5b15611d7457565b60405162461bcd60e51b815260206004820152600f60248201526e0d8cadccee8d040dad2e6dac2e8c6d608b1b6044820152606490fd5b3561043b816104b9565b91908110156114625760051b81013590601e19813603018212156101f55701908135916001600160401b0383116101f55760200182360381136101f5579190565b15611dfd57565b60405162461bcd60e51b815260206004820152601760248201527f6e6f7420676f7665726e616e63652070726f706f73616c0000000000000000006044820152606490fd5b15611e4957565b60405162461bcd60e51b815260206004820152601860248201527f6e6f7420656e6f75676820636f6e6669726d6174696f6e7300000000000000006044820152606490fd5b15611e9557565b60405162461bcd60e51b81526020600482015260136024820152721d1a5b595b1bd8dac81b9bdd081c185cdcd959606a1b6044820152606490fd5b908160209103126101f5575161043b816104b9565b908160209103126101f5575190565b15611efb57565b60405162461bcd60e51b81526020600482015260116024820152701a5b9d985b1a59081d1a1c995cda1bdb19607a1b6044820152606490fd5b15611f3b57565b60405162461bcd60e51b8152602060048201526011602482015270185b1c9958591e4818dbdb999a5c9b5959607a1b6044820152606490fd5b6002600954611f888260ff83161415611467565b60ff191617600955335f525f602052611fa760ff60405f205416611955565b5f80611fbb835f52600460205260405f2090565b611fd3600582016113b1610637610633835460ff1690565b60018101546008906001600160a01b031691600281015490611ffb604051809481930161202e565b03925af1905f5160206125a85f395f51905f526120196114156118bb565b0390a361035b600160ff196009541617600955565b5f929181549161203d836102b1565b9260018116908115612085575060011461205657505050565b90919293505f5260205f205f905b8382106120715750500190565b600181602092548486015201910190612064565b60ff191683525050811515909102019150565b6040513481527fe1fffcc4923d04b559f4d29a8bfc6cda04eb5b0d3c460751c2402c5c5cc9109c60203392a2565b60418151036120e457602081015190606060408201519101515f1a92565b60405162461bcd60e51b81526020600482015260126024820152710d2dcecc2d8d2c840e6d2ce40d8cadccee8d60731b6044820152606490fd5b612224946001600160a01b03831694927f6e6d98e9eb4242c1cb7cf89192befbe514b465224d811b9e43447b595ce8b6ff929061223c9061216088151561171b565b61216b60035461189b565b98899661217788600355565b61218236878361178b565b8051602091820120604080516001600160a01b03898116825287169381019390935282018b905296907f1d0950985a1d5c71e16311a680794375b4e95b2614ffdfa9ffd0f40751867d8f90606090a16121f96121dc611760565b6001600160a01b0388168152946001600160a01b03166020860152565b8960408501528660608501525f60808501525f60a08501524260c08501525f60e0850152369161178b565b610100820152610965865f52600460205260405f2090565b6040805195865260208601929092526001600160a01b031693a490565b60207f6c4ce60fd690e1216286a10b875c5662555f10774484e58142cedd7a90781baa918015158061229c575b61228f90611ef4565b80600255604051908152a1565b50600154811115612286565b5f198101919082116118a957565b6001548015612309575f198101906001548210156114625760015f8190527fb10e2d527612073b26eecdfd717e6a320cf44b4afac2b0732d9fcbe2b7fa0cf590910180546001600160a01b031916905555565b634e487b7160e01b5f52603160045260245ffd5b61234161233c6106d28360018060a01b03165f525f60205260405f2090565b611955565b6001600160a01b0381165f908152602081905260409020612361906106fc565b5f5b60015490818110156124585761237b6106a982611aba565b6001600160a01b03848116911614612397576001915001612363565b6123b76123b16106a96123ac6123db956122a8565b611aba565b91611aba565b81546001600160a01b0393841660039290921b91821b9390911b1916919091179055565b6123e36122b6565b600254600154809111612421575b506001600160a01b03167f58619076adf5bb0943d100ef88d52d7c3fd691b19d3a9071b555b651fbf418da5f80a2565b60028190556040519081527f6c4ce60fd690e1216286a10b875c5662555f10774484e58142cedd7a90781baa90602090a15f6123f1565b50506123e3565b600154906801000000000000000082101561031e57600182016001556001548210156114625760015f527fb10e2d527612073b26eecdfd717e6a320cf44b4afac2b0732d9fcbe2b7fa0cf690910180546001600160a01b0319166001600160a01b03909216919091179055565b6001600160a01b03811690811561257c576001600160a01b0381165f9081526020819052604090205460ff16612547578061251c610c736125219360018060a01b03165f525f60205260405f2090565b61245f565b7f994a936646fe87ffe4f1e469d3d6aa417d6b855598397f323de5b449f765f0c35f80a2565b60405162461bcd60e51b815260206004820152600d60248201526c30b63932b0b23c9037bbb732b960991b6044820152606490fd5b606460405162461bcd60e51b81526020600482015260046024820152637a65726f60e01b6044820152fdfe40ad9bda067c2d6c5f31b3101e5f886043d36c6a6258478f17a2152af947a196a2646970667358221220bf9ad7be05c7b3ae9ac17c52730950e9435fa8a185f6fa3c6a0d5ab94f4cc58864736f6c634300081e0033","linkReferences":{}},"methodIdentifiers":{"DOMAIN_SEPARATOR()":"3644e515","EXECUTE_TYPEHASH()":"60d2f33d","MAX_BATCH()":"950bff9f","batchConfirm(uint256[])":"62391520","batchExecute(uint256[])":"00a0d28f","batchPropose(address[],uint256[],bytes[])":"592536aa","cancelTransaction(uint256)":"3380c0d8","confirmTransaction(uint256)":"c01a8c84","confirmations(uint256,address)":"3411c81c","executeGovernance(uint256)":"83aa4f62","executeTransaction(uint256)":"ee22610b","executeWithSignature(address,uint256,bytes,uint256,bytes)":"0993d763","getOwners()":"a0e67e2b","getProposal(uint256)":"c7f758a8","isOwner(address)":"2f54bf6e","nonces(address)":"7ecebe00","proposalCount()":"da35c664","proposals(uint256)":"013cf08b","proposeAddOwner(address)":"48cd10c6","proposeChangeThreshold(uint256)":"9c23fa61","proposeRemoveOwner(address)":"d966403a","proposeTransaction(address,uint256,bytes)":"5e90852d","threshold()":"42cde4e8","timelockDuration()":"2bbca157","version()":"54fd4d50","withdrawDeferred()":"3cdf6783"},"id":16}